{
  "_format": "hh-sol-artifact-1",
  "contractName": "SupplyChain",
  "sourceName": "contracts/SupplyChain.sol",
  "abi": [
    {
      "inputs": [
        {
          "internalType": "address",
          "name": "_distributor",
          "type": "address"
        },
        {
          "internalType": "address",
          "name": "_retailer",
          "type": "address"
        }
      ],
      "stateMutability": "nonpayable",
      "type": "constructor"
    },
    {
      "anonymous": false,
      "inputs": [
        {
          "indexed": false,
          "internalType": "string",
          "name": "batchId",
          "type": "string"
        },
        {
          "indexed": false,
          "internalType": "string",
          "name": "internalBatchName",
          "type": "string"
        },
        {
          "indexed": false,
          "internalType": "uint256",
          "name": "quantity",
          "type": "uint256"
        },
        {
          "indexed": false,
          "internalType": "string",
          "name": "userId",
          "type": "string"
        }
      ],
      "name": "BatchCreated",
      "type": "event"
    },
    {
      "anonymous": false,
      "inputs": [
        {
          "indexed": false,
          "internalType": "string",
          "name": "batchId",
          "type": "string"
        },
        {
          "indexed": false,
          "internalType": "string",
          "name": "newStatus",
          "type": "string"
        },
        {
          "indexed": false,
          "internalType": "address",
          "name": "by",
          "type": "address"
        },
        {
          "indexed": false,
          "internalType": "string",
          "name": "location",
          "type": "string"
        }
      ],
      "name": "BatchStatusUpdated",
      "type": "event"
    },
    {
      "inputs": [
        {
          "internalType": "string",
          "name": "_batchId",
          "type": "string"
        }
      ],
      "name": "batchExistsView",
      "outputs": [
        {
          "internalType": "bool",
          "name": "",
          "type": "bool"
        }
      ],
      "stateMutability": "view",
      "type": "function"
    },
    {
      "inputs": [
        {
          "internalType": "string",
          "name": "_batchId",
          "type": "string"
        },
        {
          "internalType": "uint256",
          "name": "_quantity",
          "type": "uint256"
        },
        {
          "internalType": "string",
          "name": "_userId",
          "type": "string"
        },
        {
          "internalType": "string",
          "name": "_internalBatchName",
          "type": "string"
        },
        {
          "internalType": "string",
          "name": "_initialLocation",
          "type": "string"
        }
      ],
      "name": "createBatch",
      "outputs": [],
      "stateMutability": "nonpayable",
      "type": "function"
    },
    {
      "inputs": [],
      "name": "distributor",
      "outputs": [
        {
          "internalType": "address",
          "name": "",
          "type": "address"
        }
      ],
      "stateMutability": "view",
      "type": "function"
    },
    {
      "inputs": [],
      "name": "getAllBatchIds",
      "outputs": [
        {
          "internalType": "string[]",
          "name": "",
          "type": "string[]"
        }
      ],
      "stateMutability": "view",
      "type": "function"
    },
    {
      "inputs": [
        {
          "internalType": "string",
          "name": "_batchId",
          "type": "string"
        }
      ],
      "name": "getBatch",
      "outputs": [
        {
          "internalType": "string",
          "name": "batchId",
          "type": "string"
        },
        {
          "internalType": "uint256",
          "name": "quantity",
          "type": "uint256"
        },
        {
          "internalType": "string",
          "name": "userId",
          "type": "string"
        },
        {
          "internalType": "string",
          "name": "internalBatchName",
          "type": "string"
        },
        {
          "internalType": "uint256",
          "name": "manufacturingDate",
          "type": "uint256"
        },
        {
          "internalType": "string",
          "name": "status",
          "type": "string"
        },
        {
          "internalType": "string",
          "name": "currentLocation",
          "type": "string"
        },
        {
          "internalType": "address",
          "name": "currentHolder",
          "type": "address"
        }
      ],
      "stateMutability": "view",
      "type": "function"
    },
    {
      "inputs": [],
      "name": "getBatchCount",
      "outputs": [
        {
          "internalType": "uint256",
          "name": "",
          "type": "uint256"
        }
      ],
      "stateMutability": "view",
      "type": "function"
    },
    {
      "inputs": [
        {
          "internalType": "string",
          "name": "_batchId",
          "type": "string"
        }
      ],
      "name": "getBatchHistory",
      "outputs": [
        {
          "internalType": "string[]",
          "name": "",
          "type": "string[]"
        }
      ],
      "stateMutability": "view",
      "type": "function"
    },
    {
      "inputs": [
        {
          "internalType": "string",
          "name": "_userId",
          "type": "string"
        }
      ],
      "name": "getBatchesByUser",
      "outputs": [
        {
          "internalType": "string[]",
          "name": "",
          "type": "string[]"
        }
      ],
      "stateMutability": "view",
      "type": "function"
    },
    {
      "inputs": [],
      "name": "manufacturer",
      "outputs": [
        {
          "internalType": "address",
          "name": "",
          "type": "address"
        }
      ],
      "stateMutability": "view",
      "type": "function"
    },
    {
      "inputs": [],
      "name": "retailer",
      "outputs": [
        {
          "internalType": "address",
          "name": "",
          "type": "address"
        }
      ],
      "stateMutability": "view",
      "type": "function"
    },
    {
      "inputs": [
        {
          "internalType": "address",
          "name": "_newDistributor",
          "type": "address"
        }
      ],
      "name": "setDistributor",
      "outputs": [],
      "stateMutability": "nonpayable",
      "type": "function"
    },
    {
      "inputs": [
        {
          "internalType": "address",
          "name": "_newRetailer",
          "type": "address"
        }
      ],
      "name": "setRetailer",
      "outputs": [],
      "stateMutability": "nonpayable",
      "type": "function"
    },
    {
      "inputs": [
        {
          "internalType": "string",
          "name": "_batchId",
          "type": "string"
        },
        {
          "internalType": "address",
          "name": "_newHolder",
          "type": "address"
        }
      ],
      "name": "updateBatchHolder",
      "outputs": [],
      "stateMutability": "nonpayable",
      "type": "function"
    },
    {
      "inputs": [
        {
          "internalType": "string",
          "name": "_batchId",
          "type": "string"
        },
        {
          "internalType": "enum SupplyChain.Status",
          "name": "_newStatus",
          "type": "uint8"
        },
        {
          "internalType": "string",
          "name": "_newLocation",
          "type": "string"
        }
      ],
      "name": "updateBatchStatus",
      "outputs": [],
      "stateMutability": "nonpayable",
      "type": "function"
    }
  ],
  "bytecode": "0x608060405234801561001057600080fd5b506040516133123803806133128339818101604052810190610032919061015e565b336000806101000a81548173ffffffffffffffffffffffffffffffffffffffff021916908373ffffffffffffffffffffffffffffffffffffffff16021790555081600160006101000a81548173ffffffffffffffffffffffffffffffffffffffff021916908373ffffffffffffffffffffffffffffffffffffffff16021790555080600260006101000a81548173ffffffffffffffffffffffffffffffffffffffff021916908373ffffffffffffffffffffffffffffffffffffffff160217905550505061019e565b600080fd5b600073ffffffffffffffffffffffffffffffffffffffff82169050919050565b600061012b82610100565b9050919050565b61013b81610120565b811461014657600080fd5b50565b60008151905061015881610132565b92915050565b60008060408385031215610175576101746100fb565b5b600061018385828601610149565b925050602061019485828601610149565b9150509250929050565b613165806101ad6000396000f3fe608060405234801561001057600080fd5b50600436106100ea5760003560e01c8063a252d8a71161008c578063bce0694711610066578063bce0694714610235578063bfe1092814610253578063c15f99de14610271578063f9ca4274146102a1576100ea565b8063a252d8a7146101b7578063a8fabfa5146101e7578063addbdd8c14610205576100ea565b80634c1249fc116100c85780634c1249fc14610143578063631721c514610161578063747542821461017d57806375619ab51461019b576100ea565b80632c8f5c5b146100ef5780633728006d1461010b5780634a1f612514610127575b600080fd5b61010960048036038101906101049190611ee9565b6102d8565b005b61012560048036038101906101209190611fd2565b610b76565b005b610141600480360381019061013c919061202e565b610dc5565b005b61014b610f08565b604051610158919061206a565b60405180910390f35b61017b600480360381019061017691906120bb565b610f2e565b005b6101856112e9565b604051610192919061206a565b60405180910390f35b6101b560048036038101906101b0919061202e565b61130d565b005b6101d160048036038101906101cc91906121a6565b611450565b6040516101de9190612330565b60405180910390f35b6101ef6115b0565b6040516101fc9190612361565b60405180910390f35b61021f600480360381019061021a91906121a6565b6115bd565b60405161022c9190612330565b60405180910390f35b61023d6116b4565b60405161024a9190612330565b60405180910390f35b61025b61178d565b604051610268919061206a565b60405180910390f35b61028b600480360381019061028691906121a6565b6117b3565b6040516102989190612397565b60405180910390f35b6102bb60048036038101906102b691906121a6565b6117e1565b6040516102cf9897969594939291906123fc565b60405180910390f35b8260006003826040516102eb91906124d9565b9081526020016040518091039020600401540361033d576040517f08c379a00000000000000000000000000000000000000000000000000000000081526004016103349061253c565b60405180910390fd5b600060038560405161034f91906124d9565b9081526020016040518091039020905060008160050160009054906101000a900460ff16905060606001600481111561038b5761038a61255c565b5b86600481111561039e5761039d61255c565b5b0361058c57600060048111156103b7576103b661255c565b5b8260048111156103ca576103c961255c565b5b14806103fa5750600260048111156103e5576103e461255c565b5b8260048111156103f8576103f761255c565b5b145b610439576040517f08c379a0000000000000000000000000000000000000000000000000000000008152600401610430906125fd565b60405180910390fd5b60008054906101000a900473ffffffffffffffffffffffffffffffffffffffff1673ffffffffffffffffffffffffffffffffffffffff163373ffffffffffffffffffffffffffffffffffffffff1614806104e05750600160009054906101000a900473ffffffffffffffffffffffffffffffffffffffff1673ffffffffffffffffffffffffffffffffffffffff163373ffffffffffffffffffffffffffffffffffffffff16145b61051f576040517f08c379a00000000000000000000000000000000000000000000000000000000081526004016105169061268f565b60405180910390fd5b600060048111156105335761053261255c565b5b8260048111156105465761054561255c565b5b0361056b5760405180606001604052806026815260200161310a602691399050610587565b6040518060600160405280602281526020016130e86022913990505b610ab3565b600260048111156105a05761059f61255c565b5b8660048111156105b3576105b261255c565b5b0361075157600160048111156105cc576105cb61255c565b5b8260048111156105df576105de61255c565b5b1461061f576040517f08c379a0000000000000000000000000000000000000000000000000000000008152600401610616906126fb565b60405180910390fd5b600160009054906101000a900473ffffffffffffffffffffffffffffffffffffffff1673ffffffffffffffffffffffffffffffffffffffff163373ffffffffffffffffffffffffffffffffffffffff16146106af576040517f08c379a00000000000000000000000000000000000000000000000000000000081526004016106a69061278d565b60405180910390fd5b600160009054906101000a900473ffffffffffffffffffffffffffffffffffffffff168360070160006101000a81548173ffffffffffffffffffffffffffffffffffffffff021916908373ffffffffffffffffffffffffffffffffffffffff1602179055506040518060400160405280601881526020017f44656c69766572656420746f206469737472696275746f7200000000000000008152509050610ab2565b600360048111156107655761076461255c565b5b8660048111156107785761077761255c565b5b0361091657600160048111156107915761079061255c565b5b8260048111156107a4576107a361255c565b5b146107e4576040517f08c379a00000000000000000000000000000000000000000000000000000000081526004016107db9061281f565b60405180910390fd5b600260009054906101000a900473ffffffffffffffffffffffffffffffffffffffff1673ffffffffffffffffffffffffffffffffffffffff163373ffffffffffffffffffffffffffffffffffffffff1614610874576040517f08c379a000000000000000000000000000000000000000000000000000000000815260040161086b9061288b565b60405180910390fd5b600260009054906101000a900473ffffffffffffffffffffffffffffffffffffffff168360070160006101000a81548173ffffffffffffffffffffffffffffffffffffffff021916908373ffffffffffffffffffffffffffffffffffffffff1602179055506040518060400160405280601581526020017f44656c69766572656420746f2072657461696c657200000000000000000000008152509050610ab1565b6004808111156109295761092861255c565b5b86600481111561093c5761093b61255c565b5b03610a7557600360048111156109555761095461255c565b5b8260048111156109685761096761255c565b5b146109a8576040517f08c379a000000000000000000000000000000000000000000000000000000000815260040161099f906128f7565b60405180910390fd5b600260009054906101000a900473ffffffffffffffffffffffffffffffffffffffff1673ffffffffffffffffffffffffffffffffffffffff163373ffffffffffffffffffffffffffffffffffffffff1614610a38576040517f08c379a0000000000000000000000000000000000000000000000000000000008152600401610a2f90612989565b60405180910390fd5b6040518060400160405280601581526020017f44656c69766572656420746f20636f6e73756d657200000000000000000000008152509050610ab0565b6040517f08c379a0000000000000000000000000000000000000000000000000000000008152600401610aa7906129f5565b60405180910390fd5b5b5b5b858360050160006101000a81548160ff02191690836004811115610ada57610ad961255c565b5b021790555084836006019081610af09190612c21565b508260080181908060018154018082558091505060019003906000526020600020016000909190919091509081610b279190612c21565b507f66c7489fa30d5d8ee5d6c67d2f5e54a35142352ec775ccef8ea9dae2f97417c287610b5388611b1c565b3388604051610b659493929190612cf3565b60405180910390a150505050505050565b60008054906101000a900473ffffffffffffffffffffffffffffffffffffffff168073ffffffffffffffffffffffffffffffffffffffff163373ffffffffffffffffffffffffffffffffffffffff1614610c05576040517f08c379a0000000000000000000000000000000000000000000000000000000008152600401610bfc90612dbf565b60405180910390fd5b826000600382604051610c1891906124d9565b90815260200160405180910390206004015403610c6a576040517f08c379a0000000000000000000000000000000000000000000000000000000008152600401610c619061253c565b60405180910390fd5b600073ffffffffffffffffffffffffffffffffffffffff168373ffffffffffffffffffffffffffffffffffffffff1603610cd9576040517f08c379a0000000000000000000000000000000000000000000000000000000008152600401610cd090612e2b565b60405180910390fd5b82600385604051610cea91906124d9565b908152602001604051809103902060070160006101000a81548173ffffffffffffffffffffffffffffffffffffffff021916908373ffffffffffffffffffffffffffffffffffffffff160217905550600384604051610d4991906124d9565b908152602001604051809103902060080180600181540180825580915050600190039060005260206000200160006040518060400160405280601e81526020017f486f6c6465722075706461746564206279206d616e756661637475726572000081525090919091509081610dbe9190612c21565b5050505050565b60008054906101000a900473ffffffffffffffffffffffffffffffffffffffff168073ffffffffffffffffffffffffffffffffffffffff163373ffffffffffffffffffffffffffffffffffffffff1614610e54576040517f08c379a0000000000000000000000000000000000000000000000000000000008152600401610e4b90612dbf565b60405180910390fd5b600073ffffffffffffffffffffffffffffffffffffffff168273ffffffffffffffffffffffffffffffffffffffff1603610ec3576040517f08c379a0000000000000000000000000000000000000000000000000000000008152600401610eba90612e97565b60405180910390fd5b81600260006101000a81548173ffffffffffffffffffffffffffffffffffffffff021916908373ffffffffffffffffffffffffffffffffffffffff1602179055505050565b600260009054906101000a900473ffffffffffffffffffffffffffffffffffffffff1681565b60008054906101000a900473ffffffffffffffffffffffffffffffffffffffff168073ffffffffffffffffffffffffffffffffffffffff163373ffffffffffffffffffffffffffffffffffffffff1614610fbd576040517f08c379a0000000000000000000000000000000000000000000000000000000008152600401610fb490612dbf565b60405180910390fd5b6000865111611001576040517f08c379a0000000000000000000000000000000000000000000000000000000008152600401610ff890612f03565b60405180910390fd5b600060038760405161101391906124d9565b90815260200160405180910390206004015414611065576040517f08c379a000000000000000000000000000000000000000000000000000000000815260040161105c90612f6f565b60405180910390fd5b600085116110a8576040517f08c379a000000000000000000000000000000000000000000000000000000000815260040161109f90613001565b60405180910390fd5b60006003876040516110ba91906124d9565b90815260200160405180910390209050868160000190816110db9190612c21565b50858160010181905550848160020190816110f69190612c21565b50838160030190816111089190612c21565b5042816004018190555060008160050160006101000a81548160ff0219169083600481111561113a5761113961255c565b5b0217905550828160060190816111509190612c21565b5060008054906101000a900473ffffffffffffffffffffffffffffffffffffffff168160070160006101000a81548173ffffffffffffffffffffffffffffffffffffffff021916908373ffffffffffffffffffffffffffffffffffffffff1602179055508060080180600181540180825580915050600190039060005260206000200160006040518060400160405280601d81526020017f42617463682063726561746564206279206d616e7566616374757265720000008152509091909150908161121c9190612c21565b506004879080600181540180825580915050600190039060005260206000200160009091909190915090816112519190612c21565b5060058560405161126291906124d9565b9081526020016040518091039020879080600181540180825580915050600190039060005260206000200160009091909190915090816112a29190612c21565b507f2c47f1b03bde212b9d7c189333c3cd040ba5c110d6700b6d20f7347d73fde50a878588886040516112d89493929190613021565b60405180910390a150505050505050565b60008054906101000a900473ffffffffffffffffffffffffffffffffffffffff1681565b60008054906101000a900473ffffffffffffffffffffffffffffffffffffffff168073ffffffffffffffffffffffffffffffffffffffff163373ffffffffffffffffffffffffffffffffffffffff161461139c576040517f08c379a000000000000000000000000000000000000000000000000000000000815260040161139390612dbf565b60405180910390fd5b600073ffffffffffffffffffffffffffffffffffffffff168273ffffffffffffffffffffffffffffffffffffffff160361140b576040517f08c379a000000000000000000000000000000000000000000000000000000000815260040161140290612e97565b60405180910390fd5b81600160006101000a81548173ffffffffffffffffffffffffffffffffffffffff021916908373ffffffffffffffffffffffffffffffffffffffff1602179055505050565b606081600060038260405161146591906124d9565b908152602001604051809103902060040154036114b7576040517f08c379a00000000000000000000000000000000000000000000000000000000081526004016114ae9061253c565b60405180910390fd5b6003836040516114c791906124d9565b9081526020016040518091039020600801805480602002602001604051908101604052809291908181526020016000905b828210156115a457838290600052602060002001805461151790612a44565b80601f016020809104026020016040519081016040528092919081815260200182805461154390612a44565b80156115905780601f1061156557610100808354040283529160200191611590565b820191906000526020600020905b81548152906001019060200180831161157357829003601f168201915b5050505050815260200190600101906114f8565b50505050915050919050565b6000600480549050905090565b60606005826040516115cf91906124d9565b9081526020016040518091039020805480602002602001604051908101604052809291908181526020016000905b828210156116a957838290600052602060002001805461161c90612a44565b80601f016020809104026020016040519081016040528092919081815260200182805461164890612a44565b80156116955780601f1061166a57610100808354040283529160200191611695565b820191906000526020600020905b81548152906001019060200180831161167857829003601f168201915b5050505050815260200190600101906115fd565b505050509050919050565b60606004805480602002602001604051908101604052809291908181526020016000905b828210156117845783829060005260206000200180546116f790612a44565b80601f016020809104026020016040519081016040528092919081815260200182805461172390612a44565b80156117705780601f1061174557610100808354040283529160200191611770565b820191906000526020600020905b81548152906001019060200180831161175357829003601f168201915b5050505050815260200190600101906116d8565b50505050905090565b600160009054906101000a900473ffffffffffffffffffffffffffffffffffffffff1681565b6000806003836040516117c691906124d9565b90815260200160405180910390206004015414159050919050565b606060006060806000606080600088600060038260405161180291906124d9565b90815260200160405180910390206004015403611854576040517f08c379a000000000000000000000000000000000000000000000000000000000815260040161184b9061253c565b60405180910390fd5b600060038b60405161186691906124d9565b90815260200160405180910390209050806000018160010154826002018360030184600401546118a68660050160009054906101000a900460ff16611b1c565b866006018760070160009054906101000a900473ffffffffffffffffffffffffffffffffffffffff168780546118db90612a44565b80601f016020809104026020016040519081016040528092919081815260200182805461190790612a44565b80156119545780601f1061192957610100808354040283529160200191611954565b820191906000526020600020905b81548152906001019060200180831161193757829003601f168201915b5050505050975085805461196790612a44565b80601f016020809104026020016040519081016040528092919081815260200182805461199390612a44565b80156119e05780601f106119b5576101008083540402835291602001916119e0565b820191906000526020600020905b8154815290600101906020018083116119c357829003601f168201915b505050505095508480546119f390612a44565b80601f0160208091040260200160405190810160405280929190818152602001828054611a1f90612a44565b8015611a6c5780601f10611a4157610100808354040283529160200191611a6c565b820191906000526020600020905b815481529060010190602001808311611a4f57829003601f168201915b50505050509450818054611a7f90612a44565b80601f0160208091040260200160405190810160405280929190818152602001828054611aab90612a44565b8015611af85780601f10611acd57610100808354040283529160200191611af8565b820191906000526020600020905b815481529060010190602001808311611adb57829003601f168201915b50505050509150995099509950995099509950995099505050919395975091939597565b606060006004811115611b3257611b3161255c565b5b826004811115611b4557611b4461255c565b5b03611b87576040518060400160405280600c81526020017f6d616e75666163747572656400000000000000000000000000000000000000008152509050611d65565b60016004811115611b9b57611b9a61255c565b5b826004811115611bae57611bad61255c565b5b03611bf0576040518060400160405280600a81526020017f696e207472616e736974000000000000000000000000000000000000000000008152509050611d65565b60026004811115611c0457611c0361255c565b5b826004811115611c1757611c1661255c565b5b03611c59576040518060400160405280601881526020017f64656c69766572656420746f206469737472696275746f7200000000000000008152509050611d65565b60036004811115611c6d57611c6c61255c565b5b826004811115611c8057611c7f61255c565b5b03611cc2576040518060400160405280601581526020017f64656c69766572656420746f2072657461696c657200000000000000000000008152509050611d65565b600480811115611cd557611cd461255c565b5b826004811115611ce857611ce761255c565b5b03611d2a576040518060400160405280601581526020017f64656c69766572656420746f20636f6e73756d657200000000000000000000008152509050611d65565b6040517f08c379a0000000000000000000000000000000000000000000000000000000008152600401611d5c906130c7565b60405180910390fd5b919050565b6000604051905090565b600080fd5b600080fd5b600080fd5b600080fd5b6000601f19601f8301169050919050565b7f4e487b7100000000000000000000000000000000000000000000000000000000600052604160045260246000fd5b611dd182611d88565b810181811067ffffffffffffffff82111715611df057611def611d99565b5b80604052505050565b6000611e03611d6a565b9050611e0f8282611dc8565b919050565b600067ffffffffffffffff821115611e2f57611e2e611d99565b5b611e3882611d88565b9050602081019050919050565b82818337600083830152505050565b6000611e67611e6284611e14565b611df9565b905082815260208101848484011115611e8357611e82611d83565b5b611e8e848285611e45565b509392505050565b600082601f830112611eab57611eaa611d7e565b5b8135611ebb848260208601611e54565b91505092915050565b60058110611ed157600080fd5b50565b600081359050611ee381611ec4565b92915050565b600080600060608486031215611f0257611f01611d74565b5b600084013567ffffffffffffffff811115611f2057611f1f611d79565b5b611f2c86828701611e96565b9350506020611f3d86828701611ed4565b925050604084013567ffffffffffffffff811115611f5e57611f5d611d79565b5b611f6a86828701611e96565b9150509250925092565b600073ffffffffffffffffffffffffffffffffffffffff82169050919050565b6000611f9f82611f74565b9050919050565b611faf81611f94565b8114611fba57600080fd5b50565b600081359050611fcc81611fa6565b92915050565b60008060408385031215611fe957611fe8611d74565b5b600083013567ffffffffffffffff81111561200757612006611d79565b5b61201385828601611e96565b925050602061202485828601611fbd565b9150509250929050565b60006020828403121561204457612043611d74565b5b600061205284828501611fbd565b91505092915050565b61206481611f94565b82525050565b600060208201905061207f600083018461205b565b92915050565b6000819050919050565b61209881612085565b81146120a357600080fd5b50565b6000813590506120b58161208f565b92915050565b600080600080600060a086880312156120d7576120d6611d74565b5b600086013567ffffffffffffffff8111156120f5576120f4611d79565b5b61210188828901611e96565b9550506020612112888289016120a6565b945050604086013567ffffffffffffffff81111561213357612132611d79565b5b61213f88828901611e96565b935050606086013567ffffffffffffffff8111156121605761215f611d79565b5b61216c88828901611e96565b925050608086013567ffffffffffffffff81111561218d5761218c611d79565b5b61219988828901611e96565b9150509295509295909350565b6000602082840312156121bc576121bb611d74565b5b600082013567ffffffffffffffff8111156121da576121d9611d79565b5b6121e684828501611e96565b91505092915050565b600081519050919050565b600082825260208201905092915050565b6000819050602082019050919050565b600081519050919050565b600082825260208201905092915050565b60005b8381101561225557808201518184015260208101905061223a565b60008484015250505050565b600061226c8261221b565b6122768185612226565b9350612286818560208601612237565b61228f81611d88565b840191505092915050565b60006122a68383612261565b905092915050565b6000602082019050919050565b60006122c6826121ef565b6122d081856121fa565b9350836020820285016122e28561220b565b8060005b8581101561231e57848403895281516122ff858261229a565b945061230a836122ae565b925060208a019950506001810190506122e6565b50829750879550505050505092915050565b6000602082019050818103600083015261234a81846122bb565b905092915050565b61235b81612085565b82525050565b60006020820190506123766000830184612352565b92915050565b60008115159050919050565b6123918161237c565b82525050565b60006020820190506123ac6000830184612388565b92915050565b600082825260208201905092915050565b60006123ce8261221b565b6123d881856123b2565b93506123e8818560208601612237565b6123f181611d88565b840191505092915050565b6000610100820190508181036000830152612417818b6123c3565b9050612426602083018a612352565b818103604083015261243881896123c3565b9050818103606083015261244c81886123c3565b905061245b6080830187612352565b81810360a083015261246d81866123c3565b905081810360c083015261248181856123c3565b905061249060e083018461205b565b9998505050505050505050565b600081905092915050565b60006124b38261221b565b6124bd818561249d565b93506124cd818560208601612237565b80840191505092915050565b60006124e582846124a8565b915081905092915050565b7f426174636820646f6573206e6f74206578697374000000000000000000000000600082015250565b60006125266014836123b2565b9150612531826124f0565b602082019050919050565b6000602082019050818103600083015261255581612519565b9050919050565b7f4e487b7100000000000000000000000000000000000000000000000000000000600052602160045260246000fd5b7f496e76616c696420737461747573207472616e736974696f6e20746f20696e2060008201527f7472616e73697400000000000000000000000000000000000000000000000000602082015250565b60006125e76027836123b2565b91506125f28261258b565b604082019050919050565b60006020820190508181036000830152612616816125da565b9050919050565b7f4f6e6c79206d616e756661637475726572206f72206469737472696275746f7260008201527f2063616e206d61726b20617320696e207472616e736974000000000000000000602082015250565b60006126796037836123b2565b91506126848261261d565b604082019050919050565b600060208201905081810360008301526126a88161266c565b9050919050565b7f4261746368206d75737420626520696e207472616e7369740000000000000000600082015250565b60006126e56018836123b2565b91506126f0826126af565b602082019050919050565b60006020820190508181036000830152612714816126d8565b9050919050565b7f4f6e6c79206469737472696275746f722063616e20726563656976652062617460008201527f6368000000000000000000000000000000000000000000000000000000000000602082015250565b60006127776022836123b2565b91506127828261271b565b604082019050919050565b600060208201905081810360008301526127a68161276a565b9050919050565b7f4261746368206d75737420626520696e207472616e7369742066726f6d20646960008201527f737472696275746f720000000000000000000000000000000000000000000000602082015250565b60006128096029836123b2565b9150612814826127ad565b604082019050919050565b60006020820190508181036000830152612838816127fc565b9050919050565b7f4f6e6c792072657461696c65722063616e207265636569766520626174636800600082015250565b6000612875601f836123b2565b91506128808261283f565b602082019050919050565b600060208201905081810360008301526128a481612868565b9050919050565b7f4261746368206d7573742062652061742072657461696c657200000000000000600082015250565b60006128e16019836123b2565b91506128ec826128ab565b602082019050919050565b60006020820190508181036000830152612910816128d4565b9050919050565b7f4f6e6c792072657461696c65722063616e2064656c6976657220746f20636f6e60008201527f73756d6572000000000000000000000000000000000000000000000000000000602082015250565b60006129736025836123b2565b915061297e82612917565b604082019050919050565b600060208201905081810360008301526129a281612966565b9050919050565b7f496e76616c696420737461747573207472616e736974696f6e00000000000000600082015250565b60006129df6019836123b2565b91506129ea826129a9565b602082019050919050565b60006020820190508181036000830152612a0e816129d2565b9050919050565b7f4e487b7100000000000000000000000000000000000000000000000000000000600052602260045260246000fd5b60006002820490506001821680612a5c57607f821691505b602082108103612a6f57612a6e612a15565b5b50919050565b60008190508160005260206000209050919050565b60006020601f8301049050919050565b600082821b905092915050565b600060088302612ad77fffffffffffffffffffffffffffffffffffffffffffffffffffffffffffffffff82612a9a565b612ae18683612a9a565b95508019841693508086168417925050509392505050565b6000819050919050565b6000612b1e612b19612b1484612085565b612af9565b612085565b9050919050565b6000819050919050565b612b3883612b03565b612b4c612b4482612b25565b848454612aa7565b825550505050565b600090565b612b61612b54565b612b6c818484612b2f565b505050565b5b81811015612b9057612b85600082612b59565b600181019050612b72565b5050565b601f821115612bd557612ba681612a75565b612baf84612a8a565b81016020851015612bbe578190505b612bd2612bca85612a8a565b830182612b71565b50505b505050565b600082821c905092915050565b6000612bf860001984600802612bda565b1980831691505092915050565b6000612c118383612be7565b9150826002028217905092915050565b612c2a8261221b565b67ffffffffffffffff811115612c4357612c42611d99565b5b612c4d8254612a44565b612c58828285612b94565b600060209050601f831160018114612c8b5760008415612c79578287015190505b612c838582612c05565b865550612ceb565b601f198416612c9986612a75565b60005b82811015612cc157848901518255600182019150602085019450602081019050612c9c565b86831015612cde5784890151612cda601f891682612be7565b8355505b6001600288020188555050505b505050505050565b60006080820190508181036000830152612d0d81876123c3565b90508181036020830152612d2181866123c3565b9050612d30604083018561205b565b8181036060830152612d4281846123c3565b905095945050505050565b7f43616c6c657220646f6573206e6f74206861766520746865207265717569726560008201527f6420726f6c650000000000000000000000000000000000000000000000000000602082015250565b6000612da96026836123b2565b9150612db482612d4d565b604082019050919050565b60006020820190508181036000830152612dd881612d9c565b9050919050565b7f496e76616c696420686f6c646572206164647265737300000000000000000000600082015250565b6000612e156016836123b2565b9150612e2082612ddf565b602082019050919050565b60006020820190508181036000830152612e4481612e08565b9050919050565b7f496e76616c696420616464726573730000000000000000000000000000000000600082015250565b6000612e81600f836123b2565b9150612e8c82612e4b565b602082019050919050565b60006020820190508181036000830152612eb081612e74565b9050919050565b7f42617463682049442063616e6e6f7420626520656d7074790000000000000000600082015250565b6000612eed6018836123b2565b9150612ef882612eb7565b602082019050919050565b60006020820190508181036000830152612f1c81612ee0565b9050919050565b7f426174636820494420616c726561647920657869737473000000000000000000600082015250565b6000612f596017836123b2565b9150612f6482612f23565b602082019050919050565b60006020820190508181036000830152612f8881612f4c565b9050919050565b7f5175616e74697479206d7573742062652067726561746572207468616e207a6560008201527f726f000000000000000000000000000000000000000000000000000000000000602082015250565b6000612feb6022836123b2565b9150612ff682612f8f565b604082019050919050565b6000602082019050818103600083015261301a81612fde565b9050919050565b6000608082019050818103600083015261303b81876123c3565b9050818103602083015261304f81866123c3565b905061305e6040830185612352565b818103606083015261307081846123c3565b905095945050505050565b7f496e76616c696420737461747573000000000000000000000000000000000000600082015250565b60006130b1600e836123b2565b91506130bc8261307b565b602082019050919050565b600060208201905081810360008301526130e0816130a4565b905091905056fe53686970706564206279206469737472696275746f7220746f2072657461696c657253686970706564206279206d616e75666163747572657220746f206469737472696275746f72a2646970667358221220587aadee65f44acda5ca6442a9c1a248d0fb769c4d0aec73c1ac102cc6a9cb9a64736f6c634300081c0033",
  "linkReferences": {},
  "deployedLinkReferences": {}
}