{
  "_format": "hh-sol-artifact-1",
  "contractName": "SupplyChain",
  "sourceName": "contracts/SupplyChain.sol",
  "abi": [
    {
      "inputs": [
        {
          "internalType": "address",
          "name": "_distributor",
          "type": "address"
        },
        {
          "internalType": "address",
          "name": "_retailer",
          "type": "address"
        }
      ],
      "stateMutability": "nonpayable",
      "type": "constructor"
    },
    {
      "anonymous": false,
      "inputs": [
        {
          "indexed": false,
          "internalType": "string",
          "name": "batchId",
          "type": "string"
        },
        {
          "indexed": false,
          "internalType": "string",
          "name": "internalBatchName",
          "type": "string"
        },
        {
          "indexed": false,
          "internalType": "uint256",
          "name": "quantity",
          "type": "uint256"
        },
        {
          "indexed": false,
          "internalType": "string",
          "name": "userId",
          "type": "string"
        }
      ],
      "name": "BatchCreated",
      "type": "event"
    },
    {
      "anonymous": false,
      "inputs": [
        {
          "indexed": false,
          "internalType": "string",
          "name": "batchId",
          "type": "string"
        },
        {
          "indexed": false,
          "internalType": "string",
          "name": "newStatus",
          "type": "string"
        },
        {
          "indexed": false,
          "internalType": "address",
          "name": "by",
          "type": "address"
        },
        {
          "indexed": false,
          "internalType": "string",
          "name": "location",
          "type": "string"
        }
      ],
      "name": "BatchStatusUpdated",
      "type": "event"
    },
    {
      "inputs": [
        {
          "internalType": "string",
          "name": "_batchId",
          "type": "string"
        },
        {
          "internalType": "uint256",
          "name": "_quantity",
          "type": "uint256"
        },
        {
          "internalType": "string",
          "name": "_userId",
          "type": "string"
        },
        {
          "internalType": "string",
          "name": "_internalBatchName",
          "type": "string"
        },
        {
          "internalType": "string",
          "name": "_initialLocation",
          "type": "string"
        }
      ],
      "name": "createBatch",
      "outputs": [],
      "stateMutability": "nonpayable",
      "type": "function"
    },
    {
      "inputs": [],
      "name": "distributor",
      "outputs": [
        {
          "internalType": "address",
          "name": "",
          "type": "address"
        }
      ],
      "stateMutability": "view",
      "type": "function"
    },
    {
      "inputs": [],
      "name": "getAllBatchIds",
      "outputs": [
        {
          "internalType": "string[]",
          "name": "",
          "type": "string[]"
        }
      ],
      "stateMutability": "view",
      "type": "function"
    },
    {
      "inputs": [
        {
          "internalType": "string",
          "name": "_batchId",
          "type": "string"
        }
      ],
      "name": "getBatch",
      "outputs": [
        {
          "internalType": "string",
          "name": "batchId",
          "type": "string"
        },
        {
          "internalType": "uint256",
          "name": "quantity",
          "type": "uint256"
        },
        {
          "internalType": "string",
          "name": "userId",
          "type": "string"
        },
        {
          "internalType": "string",
          "name": "internalBatchName",
          "type": "string"
        },
        {
          "internalType": "uint256",
          "name": "manufacturingDate",
          "type": "uint256"
        },
        {
          "internalType": "string",
          "name": "status",
          "type": "string"
        },
        {
          "internalType": "string",
          "name": "currentLocation",
          "type": "string"
        },
        {
          "internalType": "address",
          "name": "currentHolder",
          "type": "address"
        }
      ],
      "stateMutability": "view",
      "type": "function"
    },
    {
      "inputs": [],
      "name": "getBatchCount",
      "outputs": [
        {
          "internalType": "uint256",
          "name": "",
          "type": "uint256"
        }
      ],
      "stateMutability": "view",
      "type": "function"
    },
    {
      "inputs": [
        {
          "internalType": "string",
          "name": "_batchId",
          "type": "string"
        }
      ],
      "name": "getBatchHistory",
      "outputs": [
        {
          "internalType": "string[]",
          "name": "",
          "type": "string[]"
        }
      ],
      "stateMutability": "view",
      "type": "function"
    },
    {
      "inputs": [
        {
          "internalType": "string",
          "name": "_userId",
          "type": "string"
        }
      ],
      "name": "getBatchesByUser",
      "outputs": [
        {
          "internalType": "string[]",
          "name": "",
          "type": "string[]"
        }
      ],
      "stateMutability": "view",
      "type": "function"
    },
    {
      "inputs": [],
      "name": "manufacturer",
      "outputs": [
        {
          "internalType": "address",
          "name": "",
          "type": "address"
        }
      ],
      "stateMutability": "view",
      "type": "function"
    },
    {
      "inputs": [],
      "name": "retailer",
      "outputs": [
        {
          "internalType": "address",
          "name": "",
          "type": "address"
        }
      ],
      "stateMutability": "view",
      "type": "function"
    },
    {
      "inputs": [
        {
          "internalType": "address",
          "name": "_newDistributor",
          "type": "address"
        }
      ],
      "name": "setDistributor",
      "outputs": [],
      "stateMutability": "nonpayable",
      "type": "function"
    },
    {
      "inputs": [
        {
          "internalType": "address",
          "name": "_newRetailer",
          "type": "address"
        }
      ],
      "name": "setRetailer",
      "outputs": [],
      "stateMutability": "nonpayable",
      "type": "function"
    },
    {
      "inputs": [
        {
          "internalType": "string",
          "name": "_batchId",
          "type": "string"
        },
        {
          "internalType": "address",
          "name": "_newHolder",
          "type": "address"
        }
      ],
      "name": "updateBatchHolder",
      "outputs": [],
      "stateMutability": "nonpayable",
      "type": "function"
    },
    {
      "inputs": [
        {
          "internalType": "string",
          "name": "_batchId",
          "type": "string"
        },
        {
          "internalType": "enum SupplyChain.Status",
          "name": "_newStatus",
          "type": "uint8"
        },
        {
          "internalType": "string",
          "name": "_newLocation",
          "type": "string"
        }
      ],
      "name": "updateBatchStatus",
      "outputs": [],
      "stateMutability": "nonpayable",
      "type": "function"
    }
  ],
  "bytecode": "0x608060405234801561001057600080fd5b506040516132633803806132638339818101604052810190610032919061015e565b336000806101000a81548173ffffffffffffffffffffffffffffffffffffffff021916908373ffffffffffffffffffffffffffffffffffffffff16021790555081600160006101000a81548173ffffffffffffffffffffffffffffffffffffffff021916908373ffffffffffffffffffffffffffffffffffffffff16021790555080600260006101000a81548173ffffffffffffffffffffffffffffffffffffffff021916908373ffffffffffffffffffffffffffffffffffffffff160217905550505061019e565b600080fd5b600073ffffffffffffffffffffffffffffffffffffffff82169050919050565b600061012b82610100565b9050919050565b61013b81610120565b811461014657600080fd5b50565b60008151905061015881610132565b92915050565b60008060408385031215610175576101746100fb565b5b600061018385828601610149565b925050602061019485828601610149565b9150509250929050565b6130b6806101ad6000396000f3fe608060405234801561001057600080fd5b50600436106100cf5760003560e01c806375619ab51161008c578063addbdd8c11610066578063addbdd8c146101ea578063bce069471461021a578063bfe1092814610238578063f9ca427414610256576100cf565b806375619ab514610180578063a252d8a71461019c578063a8fabfa5146101cc576100cf565b80632c8f5c5b146100d45780633728006d146100f05780634a1f61251461010c5780634c1249fc14610128578063631721c5146101465780637475428214610162575b600080fd5b6100ee60048036038101906100e99190611e70565b61028d565b005b61010a60048036038101906101059190611f59565b610b2b565b005b61012660048036038101906101219190611fb5565b610d7a565b005b610130610ebd565b60405161013d9190611ff1565b60405180910390f35b610160600480360381019061015b9190612042565b610ee3565b005b61016a61129e565b6040516101779190611ff1565b60405180910390f35b61019a60048036038101906101959190611fb5565b6112c2565b005b6101b660048036038101906101b1919061212d565b611405565b6040516101c391906122b7565b60405180910390f35b6101d4611565565b6040516101e191906122e8565b60405180910390f35b61020460048036038101906101ff919061212d565b611572565b60405161021191906122b7565b60405180910390f35b610222611669565b60405161022f91906122b7565b60405180910390f35b610240611742565b60405161024d9190611ff1565b60405180910390f35b610270600480360381019061026b919061212d565b611768565b60405161028498979695949392919061234d565b60405180910390f35b8260006003826040516102a0919061242a565b908152602001604051809103902060040154036102f2576040517f08c379a00000000000000000000000000000000000000000000000000000000081526004016102e99061248d565b60405180910390fd5b6000600385604051610304919061242a565b9081526020016040518091039020905060008160050160009054906101000a900460ff1690506060600160048111156103405761033f6124ad565b5b866004811115610353576103526124ad565b5b03610541576000600481111561036c5761036b6124ad565b5b82600481111561037f5761037e6124ad565b5b14806103af57506002600481111561039a576103996124ad565b5b8260048111156103ad576103ac6124ad565b5b145b6103ee576040517f08c379a00000000000000000000000000000000000000000000000000000000081526004016103e59061254e565b60405180910390fd5b60008054906101000a900473ffffffffffffffffffffffffffffffffffffffff1673ffffffffffffffffffffffffffffffffffffffff163373ffffffffffffffffffffffffffffffffffffffff1614806104955750600160009054906101000a900473ffffffffffffffffffffffffffffffffffffffff1673ffffffffffffffffffffffffffffffffffffffff163373ffffffffffffffffffffffffffffffffffffffff16145b6104d4576040517f08c379a00000000000000000000000000000000000000000000000000000000081526004016104cb906125e0565b60405180910390fd5b600060048111156104e8576104e76124ad565b5b8260048111156104fb576104fa6124ad565b5b036105205760405180606001604052806026815260200161305b60269139905061053c565b6040518060600160405280602281526020016130396022913990505b610a68565b60026004811115610555576105546124ad565b5b866004811115610568576105676124ad565b5b036107065760016004811115610581576105806124ad565b5b826004811115610594576105936124ad565b5b146105d4576040517f08c379a00000000000000000000000000000000000000000000000000000000081526004016105cb9061264c565b60405180910390fd5b600160009054906101000a900473ffffffffffffffffffffffffffffffffffffffff1673ffffffffffffffffffffffffffffffffffffffff163373ffffffffffffffffffffffffffffffffffffffff1614610664576040517f08c379a000000000000000000000000000000000000000000000000000000000815260040161065b906126de565b60405180910390fd5b600160009054906101000a900473ffffffffffffffffffffffffffffffffffffffff168360070160006101000a81548173ffffffffffffffffffffffffffffffffffffffff021916908373ffffffffffffffffffffffffffffffffffffffff1602179055506040518060400160405280601881526020017f44656c69766572656420746f206469737472696275746f7200000000000000008152509050610a67565b6003600481111561071a576107196124ad565b5b86600481111561072d5761072c6124ad565b5b036108cb5760016004811115610746576107456124ad565b5b826004811115610759576107586124ad565b5b14610799576040517f08c379a000000000000000000000000000000000000000000000000000000000815260040161079090612770565b60405180910390fd5b600260009054906101000a900473ffffffffffffffffffffffffffffffffffffffff1673ffffffffffffffffffffffffffffffffffffffff163373ffffffffffffffffffffffffffffffffffffffff1614610829576040517f08c379a0000000000000000000000000000000000000000000000000000000008152600401610820906127dc565b60405180910390fd5b600260009054906101000a900473ffffffffffffffffffffffffffffffffffffffff168360070160006101000a81548173ffffffffffffffffffffffffffffffffffffffff021916908373ffffffffffffffffffffffffffffffffffffffff1602179055506040518060400160405280601581526020017f44656c69766572656420746f2072657461696c657200000000000000000000008152509050610a66565b6004808111156108de576108dd6124ad565b5b8660048111156108f1576108f06124ad565b5b03610a2a576003600481111561090a576109096124ad565b5b82600481111561091d5761091c6124ad565b5b1461095d576040517f08c379a000000000000000000000000000000000000000000000000000000000815260040161095490612848565b60405180910390fd5b600260009054906101000a900473ffffffffffffffffffffffffffffffffffffffff1673ffffffffffffffffffffffffffffffffffffffff163373ffffffffffffffffffffffffffffffffffffffff16146109ed576040517f08c379a00000000000000000000000000000000000000000000000000000000081526004016109e4906128da565b60405180910390fd5b6040518060400160405280601581526020017f44656c69766572656420746f20636f6e73756d657200000000000000000000008152509050610a65565b6040517f08c379a0000000000000000000000000000000000000000000000000000000008152600401610a5c90612946565b60405180910390fd5b5b5b5b858360050160006101000a81548160ff02191690836004811115610a8f57610a8e6124ad565b5b021790555084836006019081610aa59190612b72565b508260080181908060018154018082558091505060019003906000526020600020016000909190919091509081610adc9190612b72565b507f66c7489fa30d5d8ee5d6c67d2f5e54a35142352ec775ccef8ea9dae2f97417c287610b0888611aa3565b3388604051610b1a9493929190612c44565b60405180910390a150505050505050565b60008054906101000a900473ffffffffffffffffffffffffffffffffffffffff168073ffffffffffffffffffffffffffffffffffffffff163373ffffffffffffffffffffffffffffffffffffffff1614610bba576040517f08c379a0000000000000000000000000000000000000000000000000000000008152600401610bb190612d10565b60405180910390fd5b826000600382604051610bcd919061242a565b90815260200160405180910390206004015403610c1f576040517f08c379a0000000000000000000000000000000000000000000000000000000008152600401610c169061248d565b60405180910390fd5b600073ffffffffffffffffffffffffffffffffffffffff168373ffffffffffffffffffffffffffffffffffffffff1603610c8e576040517f08c379a0000000000000000000000000000000000000000000000000000000008152600401610c8590612d7c565b60405180910390fd5b82600385604051610c9f919061242a565b908152602001604051809103902060070160006101000a81548173ffffffffffffffffffffffffffffffffffffffff021916908373ffffffffffffffffffffffffffffffffffffffff160217905550600384604051610cfe919061242a565b908152602001604051809103902060080180600181540180825580915050600190039060005260206000200160006040518060400160405280601e81526020017f486f6c6465722075706461746564206279206d616e756661637475726572000081525090919091509081610d739190612b72565b5050505050565b60008054906101000a900473ffffffffffffffffffffffffffffffffffffffff168073ffffffffffffffffffffffffffffffffffffffff163373ffffffffffffffffffffffffffffffffffffffff1614610e09576040517f08c379a0000000000000000000000000000000000000000000000000000000008152600401610e0090612d10565b60405180910390fd5b600073ffffffffffffffffffffffffffffffffffffffff168273ffffffffffffffffffffffffffffffffffffffff1603610e78576040517f08c379a0000000000000000000000000000000000000000000000000000000008152600401610e6f90612de8565b60405180910390fd5b81600260006101000a81548173ffffffffffffffffffffffffffffffffffffffff021916908373ffffffffffffffffffffffffffffffffffffffff1602179055505050565b600260009054906101000a900473ffffffffffffffffffffffffffffffffffffffff1681565b60008054906101000a900473ffffffffffffffffffffffffffffffffffffffff168073ffffffffffffffffffffffffffffffffffffffff163373ffffffffffffffffffffffffffffffffffffffff1614610f72576040517f08c379a0000000000000000000000000000000000000000000000000000000008152600401610f6990612d10565b60405180910390fd5b6000865111610fb6576040517f08c379a0000000000000000000000000000000000000000000000000000000008152600401610fad90612e54565b60405180910390fd5b6000600387604051610fc8919061242a565b9081526020016040518091039020600401541461101a576040517f08c379a000000000000000000000000000000000000000000000000000000000815260040161101190612ec0565b60405180910390fd5b6000851161105d576040517f08c379a000000000000000000000000000000000000000000000000000000000815260040161105490612f52565b60405180910390fd5b600060038760405161106f919061242a565b90815260200160405180910390209050868160000190816110909190612b72565b50858160010181905550848160020190816110ab9190612b72565b50838160030190816110bd9190612b72565b5042816004018190555060008160050160006101000a81548160ff021916908360048111156110ef576110ee6124ad565b5b0217905550828160060190816111059190612b72565b5060008054906101000a900473ffffffffffffffffffffffffffffffffffffffff168160070160006101000a81548173ffffffffffffffffffffffffffffffffffffffff021916908373ffffffffffffffffffffffffffffffffffffffff1602179055508060080180600181540180825580915050600190039060005260206000200160006040518060400160405280601d81526020017f42617463682063726561746564206279206d616e756661637475726572000000815250909190915090816111d19190612b72565b506004879080600181540180825580915050600190039060005260206000200160009091909190915090816112069190612b72565b50600585604051611217919061242a565b9081526020016040518091039020879080600181540180825580915050600190039060005260206000200160009091909190915090816112579190612b72565b507f2c47f1b03bde212b9d7c189333c3cd040ba5c110d6700b6d20f7347d73fde50a8785888860405161128d9493929190612f72565b60405180910390a150505050505050565b60008054906101000a900473ffffffffffffffffffffffffffffffffffffffff1681565b60008054906101000a900473ffffffffffffffffffffffffffffffffffffffff168073ffffffffffffffffffffffffffffffffffffffff163373ffffffffffffffffffffffffffffffffffffffff1614611351576040517f08c379a000000000000000000000000000000000000000000000000000000000815260040161134890612d10565b60405180910390fd5b600073ffffffffffffffffffffffffffffffffffffffff168273ffffffffffffffffffffffffffffffffffffffff16036113c0576040517f08c379a00000000000000000000000000000000000000000000000000000000081526004016113b790612de8565b60405180910390fd5b81600160006101000a81548173ffffffffffffffffffffffffffffffffffffffff021916908373ffffffffffffffffffffffffffffffffffffffff1602179055505050565b606081600060038260405161141a919061242a565b9081526020016040518091039020600401540361146c576040517f08c379a00000000000000000000000000000000000000000000000000000000081526004016114639061248d565b60405180910390fd5b60038360405161147c919061242a565b9081526020016040518091039020600801805480602002602001604051908101604052809291908181526020016000905b828210156115595783829060005260206000200180546114cc90612995565b80601f01602080910402602001604051908101604052809291908181526020018280546114f890612995565b80156115455780601f1061151a57610100808354040283529160200191611545565b820191906000526020600020905b81548152906001019060200180831161152857829003601f168201915b5050505050815260200190600101906114ad565b50505050915050919050565b6000600480549050905090565b6060600582604051611584919061242a565b9081526020016040518091039020805480602002602001604051908101604052809291908181526020016000905b8282101561165e5783829060005260206000200180546115d190612995565b80601f01602080910402602001604051908101604052809291908181526020018280546115fd90612995565b801561164a5780601f1061161f5761010080835404028352916020019161164a565b820191906000526020600020905b81548152906001019060200180831161162d57829003601f168201915b5050505050815260200190600101906115b2565b505050509050919050565b60606004805480602002602001604051908101604052809291908181526020016000905b828210156117395783829060005260206000200180546116ac90612995565b80601f01602080910402602001604051908101604052809291908181526020018280546116d890612995565b80156117255780601f106116fa57610100808354040283529160200191611725565b820191906000526020600020905b81548152906001019060200180831161170857829003601f168201915b50505050508152602001906001019061168d565b50505050905090565b600160009054906101000a900473ffffffffffffffffffffffffffffffffffffffff1681565b6060600060608060006060806000886000600382604051611789919061242a565b908152602001604051809103902060040154036117db576040517f08c379a00000000000000000000000000000000000000000000000000000000081526004016117d29061248d565b60405180910390fd5b600060038b6040516117ed919061242a565b908152602001604051809103902090508060000181600101548260020183600301846004015461182d8660050160009054906101000a900460ff16611aa3565b866006018760070160009054906101000a900473ffffffffffffffffffffffffffffffffffffffff1687805461186290612995565b80601f016020809104026020016040519081016040528092919081815260200182805461188e90612995565b80156118db5780601f106118b0576101008083540402835291602001916118db565b820191906000526020600020905b8154815290600101906020018083116118be57829003601f168201915b505050505097508580546118ee90612995565b80601f016020809104026020016040519081016040528092919081815260200182805461191a90612995565b80156119675780601f1061193c57610100808354040283529160200191611967565b820191906000526020600020905b81548152906001019060200180831161194a57829003601f168201915b5050505050955084805461197a90612995565b80601f01602080910402602001604051908101604052809291908181526020018280546119a690612995565b80156119f35780601f106119c8576101008083540402835291602001916119f3565b820191906000526020600020905b8154815290600101906020018083116119d657829003601f168201915b50505050509450818054611a0690612995565b80601f0160208091040260200160405190810160405280929190818152602001828054611a3290612995565b8015611a7f5780601f10611a5457610100808354040283529160200191611a7f565b820191906000526020600020905b815481529060010190602001808311611a6257829003601f168201915b50505050509150995099509950995099509950995099505050919395975091939597565b606060006004811115611ab957611ab86124ad565b5b826004811115611acc57611acb6124ad565b5b03611b0e576040518060400160405280600c81526020017f6d616e75666163747572656400000000000000000000000000000000000000008152509050611cec565b60016004811115611b2257611b216124ad565b5b826004811115611b3557611b346124ad565b5b03611b77576040518060400160405280600a81526020017f696e207472616e736974000000000000000000000000000000000000000000008152509050611cec565b60026004811115611b8b57611b8a6124ad565b5b826004811115611b9e57611b9d6124ad565b5b03611be0576040518060400160405280601881526020017f64656c69766572656420746f206469737472696275746f7200000000000000008152509050611cec565b60036004811115611bf457611bf36124ad565b5b826004811115611c0757611c066124ad565b5b03611c49576040518060400160405280601581526020017f64656c69766572656420746f2072657461696c657200000000000000000000008152509050611cec565b600480811115611c5c57611c5b6124ad565b5b826004811115611c6f57611c6e6124ad565b5b03611cb1576040518060400160405280601581526020017f64656c69766572656420746f20636f6e73756d657200000000000000000000008152509050611cec565b6040517f08c379a0000000000000000000000000000000000000000000000000000000008152600401611ce390613018565b60405180910390fd5b919050565b6000604051905090565b600080fd5b600080fd5b600080fd5b600080fd5b6000601f19601f8301169050919050565b7f4e487b7100000000000000000000000000000000000000000000000000000000600052604160045260246000fd5b611d5882611d0f565b810181811067ffffffffffffffff82111715611d7757611d76611d20565b5b80604052505050565b6000611d8a611cf1565b9050611d968282611d4f565b919050565b600067ffffffffffffffff821115611db657611db5611d20565b5b611dbf82611d0f565b9050602081019050919050565b82818337600083830152505050565b6000611dee611de984611d9b565b611d80565b905082815260208101848484011115611e0a57611e09611d0a565b5b611e15848285611dcc565b509392505050565b600082601f830112611e3257611e31611d05565b5b8135611e42848260208601611ddb565b91505092915050565b60058110611e5857600080fd5b50565b600081359050611e6a81611e4b565b92915050565b600080600060608486031215611e8957611e88611cfb565b5b600084013567ffffffffffffffff811115611ea757611ea6611d00565b5b611eb386828701611e1d565b9350506020611ec486828701611e5b565b925050604084013567ffffffffffffffff811115611ee557611ee4611d00565b5b611ef186828701611e1d565b9150509250925092565b600073ffffffffffffffffffffffffffffffffffffffff82169050919050565b6000611f2682611efb565b9050919050565b611f3681611f1b565b8114611f4157600080fd5b50565b600081359050611f5381611f2d565b92915050565b60008060408385031215611f7057611f6f611cfb565b5b600083013567ffffffffffffffff811115611f8e57611f8d611d00565b5b611f9a85828601611e1d565b9250506020611fab85828601611f44565b9150509250929050565b600060208284031215611fcb57611fca611cfb565b5b6000611fd984828501611f44565b91505092915050565b611feb81611f1b565b82525050565b60006020820190506120066000830184611fe2565b92915050565b6000819050919050565b61201f8161200c565b811461202a57600080fd5b50565b60008135905061203c81612016565b92915050565b600080600080600060a0868803121561205e5761205d611cfb565b5b600086013567ffffffffffffffff81111561207c5761207b611d00565b5b61208888828901611e1d565b95505060206120998882890161202d565b945050604086013567ffffffffffffffff8111156120ba576120b9611d00565b5b6120c688828901611e1d565b935050606086013567ffffffffffffffff8111156120e7576120e6611d00565b5b6120f388828901611e1d565b925050608086013567ffffffffffffffff81111561211457612113611d00565b5b61212088828901611e1d565b9150509295509295909350565b60006020828403121561214357612142611cfb565b5b600082013567ffffffffffffffff81111561216157612160611d00565b5b61216d84828501611e1d565b91505092915050565b600081519050919050565b600082825260208201905092915050565b6000819050602082019050919050565b600081519050919050565b600082825260208201905092915050565b60005b838110156121dc5780820151818401526020810190506121c1565b60008484015250505050565b60006121f3826121a2565b6121fd81856121ad565b935061220d8185602086016121be565b61221681611d0f565b840191505092915050565b600061222d83836121e8565b905092915050565b6000602082019050919050565b600061224d82612176565b6122578185612181565b93508360208202850161226985612192565b8060005b858110156122a557848403895281516122868582612221565b945061229183612235565b925060208a0199505060018101905061226d565b50829750879550505050505092915050565b600060208201905081810360008301526122d18184612242565b905092915050565b6122e28161200c565b82525050565b60006020820190506122fd60008301846122d9565b92915050565b600082825260208201905092915050565b600061231f826121a2565b6123298185612303565b93506123398185602086016121be565b61234281611d0f565b840191505092915050565b6000610100820190508181036000830152612368818b612314565b9050612377602083018a6122d9565b81810360408301526123898189612314565b9050818103606083015261239d8188612314565b90506123ac60808301876122d9565b81810360a08301526123be8186612314565b905081810360c08301526123d28185612314565b90506123e160e0830184611fe2565b9998505050505050505050565b600081905092915050565b6000612404826121a2565b61240e81856123ee565b935061241e8185602086016121be565b80840191505092915050565b600061243682846123f9565b915081905092915050565b7f426174636820646f6573206e6f74206578697374000000000000000000000000600082015250565b6000612477601483612303565b915061248282612441565b602082019050919050565b600060208201905081810360008301526124a68161246a565b9050919050565b7f4e487b7100000000000000000000000000000000000000000000000000000000600052602160045260246000fd5b7f496e76616c696420737461747573207472616e736974696f6e20746f20696e2060008201527f7472616e73697400000000000000000000000000000000000000000000000000602082015250565b6000612538602783612303565b9150612543826124dc565b604082019050919050565b600060208201905081810360008301526125678161252b565b9050919050565b7f4f6e6c79206d616e756661637475726572206f72206469737472696275746f7260008201527f2063616e206d61726b20617320696e207472616e736974000000000000000000602082015250565b60006125ca603783612303565b91506125d58261256e565b604082019050919050565b600060208201905081810360008301526125f9816125bd565b9050919050565b7f4261746368206d75737420626520696e207472616e7369740000000000000000600082015250565b6000612636601883612303565b915061264182612600565b602082019050919050565b6000602082019050818103600083015261266581612629565b9050919050565b7f4f6e6c79206469737472696275746f722063616e20726563656976652062617460008201527f6368000000000000000000000000000000000000000000000000000000000000602082015250565b60006126c8602283612303565b91506126d38261266c565b604082019050919050565b600060208201905081810360008301526126f7816126bb565b9050919050565b7f4261746368206d75737420626520696e207472616e7369742066726f6d20646960008201527f737472696275746f720000000000000000000000000000000000000000000000602082015250565b600061275a602983612303565b9150612765826126fe565b604082019050919050565b600060208201905081810360008301526127898161274d565b9050919050565b7f4f6e6c792072657461696c65722063616e207265636569766520626174636800600082015250565b60006127c6601f83612303565b91506127d182612790565b602082019050919050565b600060208201905081810360008301526127f5816127b9565b9050919050565b7f4261746368206d7573742062652061742072657461696c657200000000000000600082015250565b6000612832601983612303565b915061283d826127fc565b602082019050919050565b6000602082019050818103600083015261286181612825565b9050919050565b7f4f6e6c792072657461696c65722063616e2064656c6976657220746f20636f6e60008201527f73756d6572000000000000000000000000000000000000000000000000000000602082015250565b60006128c4602583612303565b91506128cf82612868565b604082019050919050565b600060208201905081810360008301526128f3816128b7565b9050919050565b7f496e76616c696420737461747573207472616e736974696f6e00000000000000600082015250565b6000612930601983612303565b915061293b826128fa565b602082019050919050565b6000602082019050818103600083015261295f81612923565b9050919050565b7f4e487b7100000000000000000000000000000000000000000000000000000000600052602260045260246000fd5b600060028204905060018216806129ad57607f821691505b6020821081036129c0576129bf612966565b5b50919050565b60008190508160005260206000209050919050565b60006020601f8301049050919050565b600082821b905092915050565b600060088302612a287fffffffffffffffffffffffffffffffffffffffffffffffffffffffffffffffff826129eb565b612a3286836129eb565b95508019841693508086168417925050509392505050565b6000819050919050565b6000612a6f612a6a612a658461200c565b612a4a565b61200c565b9050919050565b6000819050919050565b612a8983612a54565b612a9d612a9582612a76565b8484546129f8565b825550505050565b600090565b612ab2612aa5565b612abd818484612a80565b505050565b5b81811015612ae157612ad6600082612aaa565b600181019050612ac3565b5050565b601f821115612b2657612af7816129c6565b612b00846129db565b81016020851015612b0f578190505b612b23612b1b856129db565b830182612ac2565b50505b505050565b600082821c905092915050565b6000612b4960001984600802612b2b565b1980831691505092915050565b6000612b628383612b38565b9150826002028217905092915050565b612b7b826121a2565b67ffffffffffffffff811115612b9457612b93611d20565b5b612b9e8254612995565b612ba9828285612ae5565b600060209050601f831160018114612bdc5760008415612bca578287015190505b612bd48582612b56565b865550612c3c565b601f198416612bea866129c6565b60005b82811015612c1257848901518255600182019150602085019450602081019050612bed565b86831015612c2f5784890151612c2b601f891682612b38565b8355505b6001600288020188555050505b505050505050565b60006080820190508181036000830152612c5e8187612314565b90508181036020830152612c728186612314565b9050612c816040830185611fe2565b8181036060830152612c938184612314565b905095945050505050565b7f43616c6c657220646f6573206e6f74206861766520746865207265717569726560008201527f6420726f6c650000000000000000000000000000000000000000000000000000602082015250565b6000612cfa602683612303565b9150612d0582612c9e565b604082019050919050565b60006020820190508181036000830152612d2981612ced565b9050919050565b7f496e76616c696420686f6c646572206164647265737300000000000000000000600082015250565b6000612d66601683612303565b9150612d7182612d30565b602082019050919050565b60006020820190508181036000830152612d9581612d59565b9050919050565b7f496e76616c696420616464726573730000000000000000000000000000000000600082015250565b6000612dd2600f83612303565b9150612ddd82612d9c565b602082019050919050565b60006020820190508181036000830152612e0181612dc5565b9050919050565b7f42617463682049442063616e6e6f7420626520656d7074790000000000000000600082015250565b6000612e3e601883612303565b9150612e4982612e08565b602082019050919050565b60006020820190508181036000830152612e6d81612e31565b9050919050565b7f426174636820494420616c726561647920657869737473000000000000000000600082015250565b6000612eaa601783612303565b9150612eb582612e74565b602082019050919050565b60006020820190508181036000830152612ed981612e9d565b9050919050565b7f5175616e74697479206d7573742062652067726561746572207468616e207a6560008201527f726f000000000000000000000000000000000000000000000000000000000000602082015250565b6000612f3c602283612303565b9150612f4782612ee0565b604082019050919050565b60006020820190508181036000830152612f6b81612f2f565b9050919050565b60006080820190508181036000830152612f8c8187612314565b90508181036020830152612fa08186612314565b9050612faf60408301856122d9565b8181036060830152612fc18184612314565b905095945050505050565b7f496e76616c696420737461747573000000000000000000000000000000000000600082015250565b6000613002600e83612303565b915061300d82612fcc565b602082019050919050565b6000602082019050818103600083015261303181612ff5565b905091905056fe53686970706564206279206469737472696275746f7220746f2072657461696c657253686970706564206279206d616e75666163747572657220746f206469737472696275746f72a2646970667358221220ae07feac0e9e5a28624fe6b20564fb84d97ceefb367449c7e8e567f0451c114864736f6c634300081c0033",
  "linkReferences": {},
  "deployedLinkReferences": {}
}