{
  "_format": "hh-sol-artifact-1",
  "contractName": "SupplyChain",
  "sourceName": "contracts/SupplyChain.sol",
  "abi": [
    {
      "inputs": [
        {
          "internalType": "address",
          "name": "_distributor",
          "type": "address"
        },
        {
          "internalType": "address",
          "name": "_retailer",
          "type": "address"
        }
      ],
      "stateMutability": "nonpayable",
      "type": "constructor"
    },
    {
      "anonymous": false,
      "inputs": [
        {
          "indexed": false,
          "internalType": "string",
          "name": "batchId",
          "type": "string"
        },
        {
          "indexed": false,
          "internalType": "string",
          "name": "internalBatchName",
          "type": "string"
        },
        {
          "indexed": false,
          "internalType": "uint256",
          "name": "quantity",
          "type": "uint256"
        },
        {
          "indexed": false,
          "internalType": "string",
          "name": "userId",
          "type": "string"
        }
      ],
      "name": "BatchCreated",
      "type": "event"
    },
    {
      "anonymous": false,
      "inputs": [
        {
          "indexed": false,
          "internalType": "string",
          "name": "batchId",
          "type": "string"
        },
        {
          "indexed": false,
          "internalType": "string",
          "name": "newStatus",
          "type": "string"
        },
        {
          "indexed": false,
          "internalType": "address",
          "name": "by",
          "type": "address"
        },
        {
          "indexed": false,
          "internalType": "string",
          "name": "location",
          "type": "string"
        }
      ],
      "name": "BatchStatusUpdated",
      "type": "event"
    },
    {
      "anonymous": false,
      "inputs": [
        {
          "indexed": false,
          "internalType": "string",
          "name": "batchId",
          "type": "string"
        },
        {
          "indexed": false,
          "internalType": "address",
          "name": "from",
          "type": "address"
        },
        {
          "indexed": false,
          "internalType": "address",
          "name": "to",
          "type": "address"
        },
        {
          "indexed": false,
          "internalType": "string",
          "name": "location",
          "type": "string"
        }
      ],
      "name": "BatchTransferred",
      "type": "event"
    },
    {
      "inputs": [
        {
          "internalType": "string",
          "name": "_batchId",
          "type": "string"
        }
      ],
      "name": "batchExistsView",
      "outputs": [
        {
          "internalType": "bool",
          "name": "",
          "type": "bool"
        }
      ],
      "stateMutability": "view",
      "type": "function"
    },
    {
      "inputs": [
        {
          "internalType": "string",
          "name": "_batchId",
          "type": "string"
        },
        {
          "internalType": "uint256",
          "name": "_quantity",
          "type": "uint256"
        },
        {
          "internalType": "string",
          "name": "_userId",
          "type": "string"
        },
        {
          "internalType": "string",
          "name": "_internalBatchName",
          "type": "string"
        },
        {
          "internalType": "string",
          "name": "_initialLocation",
          "type": "string"
        }
      ],
      "name": "createBatch",
      "outputs": [],
      "stateMutability": "nonpayable",
      "type": "function"
    },
    {
      "inputs": [],
      "name": "distributor",
      "outputs": [
        {
          "internalType": "address",
          "name": "",
          "type": "address"
        }
      ],
      "stateMutability": "view",
      "type": "function"
    },
    {
      "inputs": [],
      "name": "getAllBatchIds",
      "outputs": [
        {
          "internalType": "string[]",
          "name": "",
          "type": "string[]"
        }
      ],
      "stateMutability": "view",
      "type": "function"
    },
    {
      "inputs": [
        {
          "internalType": "string",
          "name": "_batchId",
          "type": "string"
        }
      ],
      "name": "getBatch",
      "outputs": [
        {
          "internalType": "string",
          "name": "batchId",
          "type": "string"
        },
        {
          "internalType": "uint256",
          "name": "quantity",
          "type": "uint256"
        },
        {
          "internalType": "string",
          "name": "userId",
          "type": "string"
        },
        {
          "internalType": "string",
          "name": "internalBatchName",
          "type": "string"
        },
        {
          "internalType": "uint256",
          "name": "manufacturingDate",
          "type": "uint256"
        },
        {
          "internalType": "string",
          "name": "status",
          "type": "string"
        },
        {
          "internalType": "string",
          "name": "currentLocation",
          "type": "string"
        },
        {
          "internalType": "address",
          "name": "currentHolder",
          "type": "address"
        }
      ],
      "stateMutability": "view",
      "type": "function"
    },
    {
      "inputs": [],
      "name": "getBatchCount",
      "outputs": [
        {
          "internalType": "uint256",
          "name": "",
          "type": "uint256"
        }
      ],
      "stateMutability": "view",
      "type": "function"
    },
    {
      "inputs": [
        {
          "internalType": "string",
          "name": "_batchId",
          "type": "string"
        }
      ],
      "name": "getBatchHistory",
      "outputs": [
        {
          "internalType": "string[]",
          "name": "",
          "type": "string[]"
        }
      ],
      "stateMutability": "view",
      "type": "function"
    },
    {
      "inputs": [
        {
          "internalType": "string",
          "name": "_userId",
          "type": "string"
        }
      ],
      "name": "getBatchesByUser",
      "outputs": [
        {
          "internalType": "string[]",
          "name": "",
          "type": "string[]"
        }
      ],
      "stateMutability": "view",
      "type": "function"
    },
    {
      "inputs": [],
      "name": "manufacturer",
      "outputs": [
        {
          "internalType": "address",
          "name": "",
          "type": "address"
        }
      ],
      "stateMutability": "view",
      "type": "function"
    },
    {
      "inputs": [],
      "name": "retailer",
      "outputs": [
        {
          "internalType": "address",
          "name": "",
          "type": "address"
        }
      ],
      "stateMutability": "view",
      "type": "function"
    },
    {
      "inputs": [
        {
          "internalType": "address",
          "name": "_newDistributor",
          "type": "address"
        }
      ],
      "name": "setDistributor",
      "outputs": [],
      "stateMutability": "nonpayable",
      "type": "function"
    },
    {
      "inputs": [
        {
          "internalType": "address",
          "name": "_newRetailer",
          "type": "address"
        }
      ],
      "name": "setRetailer",
      "outputs": [],
      "stateMutability": "nonpayable",
      "type": "function"
    },
    {
      "inputs": [
        {
          "internalType": "string",
          "name": "_batchId",
          "type": "string"
        },
        {
          "internalType": "address",
          "name": "_newHolder",
          "type": "address"
        },
        {
          "internalType": "string",
          "name": "_newLocation",
          "type": "string"
        }
      ],
      "name": "transferBatchOwnership",
      "outputs": [],
      "stateMutability": "nonpayable",
      "type": "function"
    },
    {
      "inputs": [
        {
          "internalType": "string",
          "name": "_batchId",
          "type": "string"
        },
        {
          "internalType": "address",
          "name": "_newHolder",
          "type": "address"
        }
      ],
      "name": "updateBatchHolder",
      "outputs": [],
      "stateMutability": "nonpayable",
      "type": "function"
    },
    {
      "inputs": [
        {
          "internalType": "string",
          "name": "_batchId",
          "type": "string"
        },
        {
          "internalType": "enum SupplyChain.Status",
          "name": "_newStatus",
          "type": "uint8"
        },
        {
          "internalType": "string",
          "name": "_newLocation",
          "type": "string"
        }
      ],
      "name": "updateBatchStatus",
      "outputs": [],
      "stateMutability": "nonpayable",
      "type": "function"
    }
  ],
  "bytecode": "0x608060405234801561001057600080fd5b5060405161394f38038061394f8339818101604052810190610032919061015e565b336000806101000a81548173ffffffffffffffffffffffffffffffffffffffff021916908373ffffffffffffffffffffffffffffffffffffffff16021790555081600160006101000a81548173ffffffffffffffffffffffffffffffffffffffff021916908373ffffffffffffffffffffffffffffffffffffffff16021790555080600260006101000a81548173ffffffffffffffffffffffffffffffffffffffff021916908373ffffffffffffffffffffffffffffffffffffffff160217905550505061019e565b600080fd5b600073ffffffffffffffffffffffffffffffffffffffff82169050919050565b600061012b82610100565b9050919050565b61013b81610120565b811461014657600080fd5b50565b60008151905061015881610132565b92915050565b60008060408385031215610175576101746100fb565b5b600061018385828601610149565b925050602061019485828601610149565b9150509250929050565b6137a2806101ad6000396000f3fe608060405234801561001057600080fd5b50600436106100f55760003560e01c8063a252d8a711610097578063bfe1092811610066578063bfe109281461025e578063c15f99de1461027c578063eccb741f146102ac578063f9ca4274146102c8576100f5565b8063a252d8a7146101c2578063a8fabfa5146101f2578063addbdd8c14610210578063bce0694714610240576100f5565b80634c1249fc116100d35780634c1249fc1461014e578063631721c51461016c578063747542821461018857806375619ab5146101a6576100f5565b80632c8f5c5b146100fa5780633728006d146101165780634a1f612514610132575b600080fd5b610114600480360381019061010f9190612372565b6102ff565b005b610130600480360381019061012b919061245b565b610c47565b005b61014c600480360381019061014791906124b7565b610e96565b005b610156610fd9565b60405161016391906124f3565b60405180910390f35b61018660048036038101906101819190612544565b610fff565b005b6101906113ba565b60405161019d91906124f3565b60405180910390f35b6101c060048036038101906101bb91906124b7565b6113de565b005b6101dc60048036038101906101d7919061262f565b611521565b6040516101e991906127b9565b60405180910390f35b6101fa611681565b60405161020791906127ea565b60405180910390f35b61022a6004803603810190610225919061262f565b61168e565b60405161023791906127b9565b60405180910390f35b610248611785565b60405161025591906127b9565b60405180910390f35b61026661185e565b60405161027391906124f3565b60405180910390f35b6102966004803603810190610291919061262f565b611884565b6040516102a39190612820565b60405180910390f35b6102c660048036038101906102c1919061283b565b6118b2565b005b6102e260048036038101906102dd919061262f565b611c01565b6040516102f6989796959493929190612910565b60405180910390f35b82600060038260405161031291906129ed565b90815260200160405180910390206004015403610364576040517f08c379a000000000000000000000000000000000000000000000000000000000815260040161035b90612a50565b60405180910390fd5b600060038560405161037691906129ed565b9081526020016040518091039020905060008160050160009054906101000a900460ff1690506060600160058111156103b2576103b1612a70565b5b8660058111156103c5576103c4612a70565b5b036104fc57600060058111156103de576103dd612a70565b5b8260058111156103f1576103f0612a70565b5b14610431576040517f08c379a000000000000000000000000000000000000000000000000000000000815260040161042890612aeb565b60405180910390fd5b60008054906101000a900473ffffffffffffffffffffffffffffffffffffffff1673ffffffffffffffffffffffffffffffffffffffff163373ffffffffffffffffffffffffffffffffffffffff16146104bf576040517f08c379a00000000000000000000000000000000000000000000000000000000081526004016104b690612b57565b60405180910390fd5b6040518060400160405280601a81526020017f44697370617463686564206279206d616e7566616374757265720000000000008152509050610b84565b600260058111156105105761050f612a70565b5b86600581111561052357610522612a70565b5b036106c1576001600581111561053c5761053b612a70565b5b82600581111561054f5761054e612a70565b5b1461058f576040517f08c379a000000000000000000000000000000000000000000000000000000000815260040161058690612be9565b60405180910390fd5b600160009054906101000a900473ffffffffffffffffffffffffffffffffffffffff1673ffffffffffffffffffffffffffffffffffffffff163373ffffffffffffffffffffffffffffffffffffffff161461061f576040517f08c379a000000000000000000000000000000000000000000000000000000000815260040161061690612c55565b60405180910390fd5b600160009054906101000a900473ffffffffffffffffffffffffffffffffffffffff168360070160006101000a81548173ffffffffffffffffffffffffffffffffffffffff021916908373ffffffffffffffffffffffffffffffffffffffff1602179055506040518060400160405280601881526020017f44656c69766572656420746f206469737472696275746f7200000000000000008152509050610b83565b600360058111156106d5576106d4612a70565b5b8660058111156106e8576106e7612a70565b5b03610821576002600581111561070157610700612a70565b5b82600581111561071457610713612a70565b5b14610754576040517f08c379a000000000000000000000000000000000000000000000000000000000815260040161074b90612aeb565b60405180910390fd5b600160009054906101000a900473ffffffffffffffffffffffffffffffffffffffff1673ffffffffffffffffffffffffffffffffffffffff163373ffffffffffffffffffffffffffffffffffffffff16146107e4576040517f08c379a00000000000000000000000000000000000000000000000000000000081526004016107db90612cc1565b60405180910390fd5b6040518060400160405280601981526020017f44697370617463686564206279206469737472696275746f72000000000000008152509050610b82565b6004600581111561083557610834612a70565b5b86600581111561084857610847612a70565b5b036109e6576003600581111561086157610860612a70565b5b82600581111561087457610873612a70565b5b146108b4576040517f08c379a00000000000000000000000000000000000000000000000000000000081526004016108ab90612d53565b60405180910390fd5b600260009054906101000a900473ffffffffffffffffffffffffffffffffffffffff1673ffffffffffffffffffffffffffffffffffffffff163373ffffffffffffffffffffffffffffffffffffffff1614610944576040517f08c379a000000000000000000000000000000000000000000000000000000000815260040161093b90612dbf565b60405180910390fd5b600260009054906101000a900473ffffffffffffffffffffffffffffffffffffffff168360070160006101000a81548173ffffffffffffffffffffffffffffffffffffffff021916908373ffffffffffffffffffffffffffffffffffffffff1602179055506040518060400160405280601581526020017f44656c69766572656420746f2072657461696c657200000000000000000000008152509050610b81565b6005808111156109f9576109f8612a70565b5b866005811115610a0c57610a0b612a70565b5b03610b455760046005811115610a2557610a24612a70565b5b826005811115610a3857610a37612a70565b5b14610a78576040517f08c379a0000000000000000000000000000000000000000000000000000000008152600401610a6f90612e2b565b60405180910390fd5b600260009054906101000a900473ffffffffffffffffffffffffffffffffffffffff1673ffffffffffffffffffffffffffffffffffffffff163373ffffffffffffffffffffffffffffffffffffffff1614610b08576040517f08c379a0000000000000000000000000000000000000000000000000000000008152600401610aff90612ebd565b60405180910390fd5b6040518060400160405280601581526020017f44656c69766572656420746f20636f6e73756d657200000000000000000000008152509050610b80565b6040517f08c379a0000000000000000000000000000000000000000000000000000000008152600401610b7790612aeb565b60405180910390fd5b5b5b5b5b858360050160006101000a81548160ff02191690836005811115610bab57610baa612a70565b5b021790555084836006019081610bc191906130e9565b508260080181908060018154018082558091505060019003906000526020600020016000909190919091509081610bf891906130e9565b507f66c7489fa30d5d8ee5d6c67d2f5e54a35142352ec775ccef8ea9dae2f97417c287610c2488611f3c565b3388604051610c3694939291906131bb565b60405180910390a150505050505050565b60008054906101000a900473ffffffffffffffffffffffffffffffffffffffff168073ffffffffffffffffffffffffffffffffffffffff163373ffffffffffffffffffffffffffffffffffffffff1614610cd6576040517f08c379a0000000000000000000000000000000000000000000000000000000008152600401610ccd90613287565b60405180910390fd5b826000600382604051610ce991906129ed565b90815260200160405180910390206004015403610d3b576040517f08c379a0000000000000000000000000000000000000000000000000000000008152600401610d3290612a50565b60405180910390fd5b600073ffffffffffffffffffffffffffffffffffffffff168373ffffffffffffffffffffffffffffffffffffffff1603610daa576040517f08c379a0000000000000000000000000000000000000000000000000000000008152600401610da1906132f3565b60405180910390fd5b82600385604051610dbb91906129ed565b908152602001604051809103902060070160006101000a81548173ffffffffffffffffffffffffffffffffffffffff021916908373ffffffffffffffffffffffffffffffffffffffff160217905550600384604051610e1a91906129ed565b908152602001604051809103902060080180600181540180825580915050600190039060005260206000200160006040518060400160405280601e81526020017f486f6c6465722075706461746564206279206d616e756661637475726572000081525090919091509081610e8f91906130e9565b5050505050565b60008054906101000a900473ffffffffffffffffffffffffffffffffffffffff168073ffffffffffffffffffffffffffffffffffffffff163373ffffffffffffffffffffffffffffffffffffffff1614610f25576040517f08c379a0000000000000000000000000000000000000000000000000000000008152600401610f1c90613287565b60405180910390fd5b600073ffffffffffffffffffffffffffffffffffffffff168273ffffffffffffffffffffffffffffffffffffffff1603610f94576040517f08c379a0000000000000000000000000000000000000000000000000000000008152600401610f8b9061335f565b60405180910390fd5b81600260006101000a81548173ffffffffffffffffffffffffffffffffffffffff021916908373ffffffffffffffffffffffffffffffffffffffff1602179055505050565b600260009054906101000a900473ffffffffffffffffffffffffffffffffffffffff1681565b60008054906101000a900473ffffffffffffffffffffffffffffffffffffffff168073ffffffffffffffffffffffffffffffffffffffff163373ffffffffffffffffffffffffffffffffffffffff161461108e576040517f08c379a000000000000000000000000000000000000000000000000000000000815260040161108590613287565b60405180910390fd5b60008651116110d2576040517f08c379a00000000000000000000000000000000000000000000000000000000081526004016110c9906133cb565b60405180910390fd5b60006003876040516110e491906129ed565b90815260200160405180910390206004015414611136576040517f08c379a000000000000000000000000000000000000000000000000000000000815260040161112d90613437565b60405180910390fd5b60008511611179576040517f08c379a0000000000000000000000000000000000000000000000000000000008152600401611170906134c9565b60405180910390fd5b600060038760405161118b91906129ed565b90815260200160405180910390209050868160000190816111ac91906130e9565b50858160010181905550848160020190816111c791906130e9565b50838160030190816111d991906130e9565b5042816004018190555060008160050160006101000a81548160ff0219169083600581111561120b5761120a612a70565b5b02179055508281600601908161122191906130e9565b5060008054906101000a900473ffffffffffffffffffffffffffffffffffffffff168160070160006101000a81548173ffffffffffffffffffffffffffffffffffffffff021916908373ffffffffffffffffffffffffffffffffffffffff1602179055508060080180600181540180825580915050600190039060005260206000200160006040518060400160405280601d81526020017f42617463682063726561746564206279206d616e756661637475726572000000815250909190915090816112ed91906130e9565b5060048790806001815401808255809150506001900390600052602060002001600090919091909150908161132291906130e9565b5060058560405161133391906129ed565b90815260200160405180910390208790806001815401808255809150506001900390600052602060002001600090919091909150908161137391906130e9565b507f2c47f1b03bde212b9d7c189333c3cd040ba5c110d6700b6d20f7347d73fde50a878588886040516113a994939291906134e9565b60405180910390a150505050505050565b60008054906101000a900473ffffffffffffffffffffffffffffffffffffffff1681565b60008054906101000a900473ffffffffffffffffffffffffffffffffffffffff168073ffffffffffffffffffffffffffffffffffffffff163373ffffffffffffffffffffffffffffffffffffffff161461146d576040517f08c379a000000000000000000000000000000000000000000000000000000000815260040161146490613287565b60405180910390fd5b600073ffffffffffffffffffffffffffffffffffffffff168273ffffffffffffffffffffffffffffffffffffffff16036114dc576040517f08c379a00000000000000000000000000000000000000000000000000000000081526004016114d39061335f565b60405180910390fd5b81600160006101000a81548173ffffffffffffffffffffffffffffffffffffffff021916908373ffffffffffffffffffffffffffffffffffffffff1602179055505050565b606081600060038260405161153691906129ed565b90815260200160405180910390206004015403611588576040517f08c379a000000000000000000000000000000000000000000000000000000000815260040161157f90612a50565b60405180910390fd5b60038360405161159891906129ed565b9081526020016040518091039020600801805480602002602001604051908101604052809291908181526020016000905b828210156116755783829060005260206000200180546115e890612f0c565b80601f016020809104026020016040519081016040528092919081815260200182805461161490612f0c565b80156116615780601f1061163657610100808354040283529160200191611661565b820191906000526020600020905b81548152906001019060200180831161164457829003601f168201915b5050505050815260200190600101906115c9565b50505050915050919050565b6000600480549050905090565b60606005826040516116a091906129ed565b9081526020016040518091039020805480602002602001604051908101604052809291908181526020016000905b8282101561177a5783829060005260206000200180546116ed90612f0c565b80601f016020809104026020016040519081016040528092919081815260200182805461171990612f0c565b80156117665780601f1061173b57610100808354040283529160200191611766565b820191906000526020600020905b81548152906001019060200180831161174957829003601f168201915b5050505050815260200190600101906116ce565b505050509050919050565b60606004805480602002602001604051908101604052809291908181526020016000905b828210156118555783829060005260206000200180546117c890612f0c565b80601f01602080910402602001604051908101604052809291908181526020018280546117f490612f0c565b80156118415780601f1061181657610100808354040283529160200191611841565b820191906000526020600020905b81548152906001019060200180831161182457829003601f168201915b5050505050815260200190600101906117a9565b50505050905090565b600160009054906101000a900473ffffffffffffffffffffffffffffffffffffffff1681565b60008060038360405161189791906129ed565b90815260200160405180910390206004015414159050919050565b8260006003826040516118c591906129ed565b90815260200160405180910390206004015403611917576040517f08c379a000000000000000000000000000000000000000000000000000000000815260040161190e90612a50565b60405180910390fd5b600060038560405161192991906129ed565b908152602001604051809103902090508060070160009054906101000a900473ffffffffffffffffffffffffffffffffffffffff1673ffffffffffffffffffffffffffffffffffffffff163373ffffffffffffffffffffffffffffffffffffffff16146119cb576040517f08c379a00000000000000000000000000000000000000000000000000000000081526004016119c29061358f565b60405180910390fd5b600073ffffffffffffffffffffffffffffffffffffffff168473ffffffffffffffffffffffffffffffffffffffff1603611a3a576040517f08c379a0000000000000000000000000000000000000000000000000000000008152600401611a31906135fb565b60405180910390fd5b8060070160009054906101000a900473ffffffffffffffffffffffffffffffffffffffff1673ffffffffffffffffffffffffffffffffffffffff168473ffffffffffffffffffffffffffffffffffffffff1603611acc576040517f08c379a0000000000000000000000000000000000000000000000000000000008152600401611ac39061368d565b60405180910390fd5b60008160070160009054906101000a900473ffffffffffffffffffffffffffffffffffffffff169050848260070160006101000a81548173ffffffffffffffffffffffffffffffffffffffff021916908373ffffffffffffffffffffffffffffffffffffffff16021790555083826006019081611b4991906130e9565b5060006040518060400160405280601581526020017f4f776e657273686970207472616e73666572726564000000000000000000000081525090508260080181908060018154018082558091505060019003906000526020600020016000909190919091509081611bba91906130e9565b507f597407412534329060f07f8c1dc55f0ce808513375ba5f52e757e263c7f46a2a87838888604051611bf094939291906136ad565b60405180910390a150505050505050565b6060600060608060006060806000886000600382604051611c2291906129ed565b90815260200160405180910390206004015403611c74576040517f08c379a0000000000000000000000000000000000000000000000000000000008152600401611c6b90612a50565b60405180910390fd5b600060038b604051611c8691906129ed565b9081526020016040518091039020905080600001816001015482600201836003018460040154611cc68660050160009054906101000a900460ff16611f3c565b866006018760070160009054906101000a900473ffffffffffffffffffffffffffffffffffffffff16878054611cfb90612f0c565b80601f0160208091040260200160405190810160405280929190818152602001828054611d2790612f0c565b8015611d745780601f10611d4957610100808354040283529160200191611d74565b820191906000526020600020905b815481529060010190602001808311611d5757829003601f168201915b50505050509750858054611d8790612f0c565b80601f0160208091040260200160405190810160405280929190818152602001828054611db390612f0c565b8015611e005780601f10611dd557610100808354040283529160200191611e00565b820191906000526020600020905b815481529060010190602001808311611de357829003601f168201915b50505050509550848054611e1390612f0c565b80601f0160208091040260200160405190810160405280929190818152602001828054611e3f90612f0c565b8015611e8c5780601f10611e6157610100808354040283529160200191611e8c565b820191906000526020600020905b815481529060010190602001808311611e6f57829003601f168201915b50505050509450818054611e9f90612f0c565b80601f0160208091040260200160405190810160405280929190818152602001828054611ecb90612f0c565b8015611f185780601f10611eed57610100808354040283529160200191611f18565b820191906000526020600020905b815481529060010190602001808311611efb57829003601f168201915b50505050509150995099509950995099509950995099505050919395975091939597565b606060006005811115611f5257611f51612a70565b5b826005811115611f6557611f64612a70565b5b03611fa7576040518060400160405280600c81526020017f6d616e756661637475726564000000000000000000000000000000000000000081525090506121ee565b60016005811115611fbb57611fba612a70565b5b826005811115611fce57611fcd612a70565b5b03612010576040518060400160405280601a81526020017f64697370617463686564206279206d616e75666163747572657200000000000081525090506121ee565b6002600581111561202457612023612a70565b5b82600581111561203757612036612a70565b5b03612079576040518060400160405280601881526020017f64656c69766572656420746f206469737472696275746f72000000000000000081525090506121ee565b6003600581111561208d5761208c612a70565b5b8260058111156120a05761209f612a70565b5b036120e2576040518060400160405280601981526020017f64697370617463686564206279206469737472696275746f720000000000000081525090506121ee565b600460058111156120f6576120f5612a70565b5b82600581111561210957612108612a70565b5b0361214b576040518060400160405280601581526020017f64656c69766572656420746f2072657461696c6572000000000000000000000081525090506121ee565b60058081111561215e5761215d612a70565b5b82600581111561217157612170612a70565b5b036121b3576040518060400160405280601581526020017f64656c69766572656420746f20636f6e73756d6572000000000000000000000081525090506121ee565b6040517f08c379a00000000000000000000000000000000000000000000000000000000081526004016121e59061374c565b60405180910390fd5b919050565b6000604051905090565b600080fd5b600080fd5b600080fd5b600080fd5b6000601f19601f8301169050919050565b7f4e487b7100000000000000000000000000000000000000000000000000000000600052604160045260246000fd5b61225a82612211565b810181811067ffffffffffffffff8211171561227957612278612222565b5b80604052505050565b600061228c6121f3565b90506122988282612251565b919050565b600067ffffffffffffffff8211156122b8576122b7612222565b5b6122c182612211565b9050602081019050919050565b82818337600083830152505050565b60006122f06122eb8461229d565b612282565b90508281526020810184848401111561230c5761230b61220c565b5b6123178482856122ce565b509392505050565b600082601f83011261233457612333612207565b5b81356123448482602086016122dd565b91505092915050565b6006811061235a57600080fd5b50565b60008135905061236c8161234d565b92915050565b60008060006060848603121561238b5761238a6121fd565b5b600084013567ffffffffffffffff8111156123a9576123a8612202565b5b6123b58682870161231f565b93505060206123c68682870161235d565b925050604084013567ffffffffffffffff8111156123e7576123e6612202565b5b6123f38682870161231f565b9150509250925092565b600073ffffffffffffffffffffffffffffffffffffffff82169050919050565b6000612428826123fd565b9050919050565b6124388161241d565b811461244357600080fd5b50565b6000813590506124558161242f565b92915050565b60008060408385031215612472576124716121fd565b5b600083013567ffffffffffffffff8111156124905761248f612202565b5b61249c8582860161231f565b92505060206124ad85828601612446565b9150509250929050565b6000602082840312156124cd576124cc6121fd565b5b60006124db84828501612446565b91505092915050565b6124ed8161241d565b82525050565b600060208201905061250860008301846124e4565b92915050565b6000819050919050565b6125218161250e565b811461252c57600080fd5b50565b60008135905061253e81612518565b92915050565b600080600080600060a086880312156125605761255f6121fd565b5b600086013567ffffffffffffffff81111561257e5761257d612202565b5b61258a8882890161231f565b955050602061259b8882890161252f565b945050604086013567ffffffffffffffff8111156125bc576125bb612202565b5b6125c88882890161231f565b935050606086013567ffffffffffffffff8111156125e9576125e8612202565b5b6125f58882890161231f565b925050608086013567ffffffffffffffff81111561261657612615612202565b5b6126228882890161231f565b9150509295509295909350565b600060208284031215612645576126446121fd565b5b600082013567ffffffffffffffff81111561266357612662612202565b5b61266f8482850161231f565b91505092915050565b600081519050919050565b600082825260208201905092915050565b6000819050602082019050919050565b600081519050919050565b600082825260208201905092915050565b60005b838110156126de5780820151818401526020810190506126c3565b60008484015250505050565b60006126f5826126a4565b6126ff81856126af565b935061270f8185602086016126c0565b61271881612211565b840191505092915050565b600061272f83836126ea565b905092915050565b6000602082019050919050565b600061274f82612678565b6127598185612683565b93508360208202850161276b85612694565b8060005b858110156127a757848403895281516127888582612723565b945061279383612737565b925060208a0199505060018101905061276f565b50829750879550505050505092915050565b600060208201905081810360008301526127d38184612744565b905092915050565b6127e48161250e565b82525050565b60006020820190506127ff60008301846127db565b92915050565b60008115159050919050565b61281a81612805565b82525050565b60006020820190506128356000830184612811565b92915050565b600080600060608486031215612854576128536121fd565b5b600084013567ffffffffffffffff81111561287257612871612202565b5b61287e8682870161231f565b935050602061288f86828701612446565b925050604084013567ffffffffffffffff8111156128b0576128af612202565b5b6128bc8682870161231f565b9150509250925092565b600082825260208201905092915050565b60006128e2826126a4565b6128ec81856128c6565b93506128fc8185602086016126c0565b61290581612211565b840191505092915050565b600061010082019050818103600083015261292b818b6128d7565b905061293a602083018a6127db565b818103604083015261294c81896128d7565b9050818103606083015261296081886128d7565b905061296f60808301876127db565b81810360a083015261298181866128d7565b905081810360c083015261299581856128d7565b90506129a460e08301846124e4565b9998505050505050505050565b600081905092915050565b60006129c7826126a4565b6129d181856129b1565b93506129e18185602086016126c0565b80840191505092915050565b60006129f982846129bc565b915081905092915050565b7f426174636820646f6573206e6f74206578697374000000000000000000000000600082015250565b6000612a3a6014836128c6565b9150612a4582612a04565b602082019050919050565b60006020820190508181036000830152612a6981612a2d565b9050919050565b7f4e487b7100000000000000000000000000000000000000000000000000000000600052602160045260246000fd5b7f496e76616c696420737461747573207472616e736974696f6e00000000000000600082015250565b6000612ad56019836128c6565b9150612ae082612a9f565b602082019050919050565b60006020820190508181036000830152612b0481612ac8565b9050919050565b7f4f6e6c79206d616e7566616374757265722063616e2064697370617463680000600082015250565b6000612b41601e836128c6565b9150612b4c82612b0b565b602082019050919050565b60006020820190508181036000830152612b7081612b34565b9050919050565b7f4261746368206e6f742064697370617463686564206279206d616e756661637460008201527f7572657200000000000000000000000000000000000000000000000000000000602082015250565b6000612bd36024836128c6565b9150612bde82612b77565b604082019050919050565b60006020820190508181036000830152612c0281612bc6565b9050919050565b7f4f6e6c79206469737472696275746f722063616e207265636569766500000000600082015250565b6000612c3f601c836128c6565b9150612c4a82612c09565b602082019050919050565b60006020820190508181036000830152612c6e81612c32565b9050919050565b7f4f6e6c79206469737472696275746f722063616e206469737061746368000000600082015250565b6000612cab601d836128c6565b9150612cb682612c75565b602082019050919050565b60006020820190508181036000830152612cda81612c9e565b9050919050565b7f4261746368206e6f74206469737061746368656420627920646973747269627560008201527f746f720000000000000000000000000000000000000000000000000000000000602082015250565b6000612d3d6023836128c6565b9150612d4882612ce1565b604082019050919050565b60006020820190508181036000830152612d6c81612d30565b9050919050565b7f4f6e6c792072657461696c65722063616e207265636569766500000000000000600082015250565b6000612da96019836128c6565b9150612db482612d73565b602082019050919050565b60006020820190508181036000830152612dd881612d9c565b9050919050565b7f4261746368206e6f742061742072657461696c65720000000000000000000000600082015250565b6000612e156015836128c6565b9150612e2082612ddf565b602082019050919050565b60006020820190508181036000830152612e4481612e08565b9050919050565b7f4f6e6c792072657461696c65722063616e2064656c6976657220746f20636f6e60008201527f73756d6572000000000000000000000000000000000000000000000000000000602082015250565b6000612ea76025836128c6565b9150612eb282612e4b565b604082019050919050565b60006020820190508181036000830152612ed681612e9a565b9050919050565b7f4e487b7100000000000000000000000000000000000000000000000000000000600052602260045260246000fd5b60006002820490506001821680612f2457607f821691505b602082108103612f3757612f36612edd565b5b50919050565b60008190508160005260206000209050919050565b60006020601f8301049050919050565b600082821b905092915050565b600060088302612f9f7fffffffffffffffffffffffffffffffffffffffffffffffffffffffffffffffff82612f62565b612fa98683612f62565b95508019841693508086168417925050509392505050565b6000819050919050565b6000612fe6612fe1612fdc8461250e565b612fc1565b61250e565b9050919050565b6000819050919050565b61300083612fcb565b61301461300c82612fed565b848454612f6f565b825550505050565b600090565b61302961301c565b613034818484612ff7565b505050565b5b818110156130585761304d600082613021565b60018101905061303a565b5050565b601f82111561309d5761306e81612f3d565b61307784612f52565b81016020851015613086578190505b61309a61309285612f52565b830182613039565b50505b505050565b600082821c905092915050565b60006130c0600019846008026130a2565b1980831691505092915050565b60006130d983836130af565b9150826002028217905092915050565b6130f2826126a4565b67ffffffffffffffff81111561310b5761310a612222565b5b6131158254612f0c565b61312082828561305c565b600060209050601f8311600181146131535760008415613141578287015190505b61314b85826130cd565b8655506131b3565b601f19841661316186612f3d565b60005b8281101561318957848901518255600182019150602085019450602081019050613164565b868310156131a657848901516131a2601f8916826130af565b8355505b6001600288020188555050505b505050505050565b600060808201905081810360008301526131d581876128d7565b905081810360208301526131e981866128d7565b90506131f860408301856124e4565b818103606083015261320a81846128d7565b905095945050505050565b7f43616c6c657220646f6573206e6f74206861766520746865207265717569726560008201527f6420726f6c650000000000000000000000000000000000000000000000000000602082015250565b60006132716026836128c6565b915061327c82613215565b604082019050919050565b600060208201905081810360008301526132a081613264565b9050919050565b7f496e76616c696420686f6c646572206164647265737300000000000000000000600082015250565b60006132dd6016836128c6565b91506132e8826132a7565b602082019050919050565b6000602082019050818103600083015261330c816132d0565b9050919050565b7f496e76616c696420616464726573730000000000000000000000000000000000600082015250565b6000613349600f836128c6565b915061335482613313565b602082019050919050565b600060208201905081810360008301526133788161333c565b9050919050565b7f42617463682049442063616e6e6f7420626520656d7074790000000000000000600082015250565b60006133b56018836128c6565b91506133c08261337f565b602082019050919050565b600060208201905081810360008301526133e4816133a8565b9050919050565b7f426174636820494420616c726561647920657869737473000000000000000000600082015250565b60006134216017836128c6565b915061342c826133eb565b602082019050919050565b6000602082019050818103600083015261345081613414565b9050919050565b7f5175616e74697479206d7573742062652067726561746572207468616e207a6560008201527f726f000000000000000000000000000000000000000000000000000000000000602082015250565b60006134b36022836128c6565b91506134be82613457565b604082019050919050565b600060208201905081810360008301526134e2816134a6565b9050919050565b6000608082019050818103600083015261350381876128d7565b9050818103602083015261351781866128d7565b905061352660408301856127db565b818103606083015261353881846128d7565b905095945050505050565b7f4f6e6c792063757272656e7420686f6c6465722063616e207472616e73666572600082015250565b60006135796020836128c6565b915061358482613543565b602082019050919050565b600060208201905081810360008301526135a88161356c565b9050919050565b7f496e76616c6964206e657720686f6c6465722061646472657373000000000000600082015250565b60006135e5601a836128c6565b91506135f0826135af565b602082019050919050565b60006020820190508181036000830152613614816135d8565b9050919050565b7f43616e6e6f74207472616e7366657220746f207468652073616d6520686f6c6460008201527f6572000000000000000000000000000000000000000000000000000000000000602082015250565b60006136776022836128c6565b91506136828261361b565b604082019050919050565b600060208201905081810360008301526136a68161366a565b9050919050565b600060808201905081810360008301526136c781876128d7565b90506136d660208301866124e4565b6136e360408301856124e4565b81810360608301526136f581846128d7565b905095945050505050565b7f496e76616c696420737461747573000000000000000000000000000000000000600082015250565b6000613736600e836128c6565b915061374182613700565b602082019050919050565b6000602082019050818103600083015261376581613729565b905091905056fea2646970667358221220be6aa2f5f325543e223d7cf03193128fc06483dfa6575a4fc5ee5e573a56c8cd64736f6c634300081c0033",
  "linkReferences": {},
  "deployedLinkReferences": {}
}