{
  "_format": "hh-sol-artifact-1",
  "contractName": "SupplyChain",
  "sourceName": "contracts/SupplyChain.sol",
  "abi": [
    {
      "inputs": [
        {
          "internalType": "address",
          "name": "_distributor",
          "type": "address"
        },
        {
          "internalType": "address",
          "name": "_retailer",
          "type": "address"
        }
      ],
      "stateMutability": "nonpayable",
      "type": "constructor"
    },
    {
      "anonymous": false,
      "inputs": [
        {
          "indexed": false,
          "internalType": "string",
          "name": "batchId",
          "type": "string"
        },
        {
          "indexed": false,
          "internalType": "string",
          "name": "internalBatchName",
          "type": "string"
        },
        {
          "indexed": false,
          "internalType": "uint256",
          "name": "quantity",
          "type": "uint256"
        },
        {
          "indexed": false,
          "internalType": "string",
          "name": "userId",
          "type": "string"
        }
      ],
      "name": "BatchCreated",
      "type": "event"
    },
    {
      "anonymous": false,
      "inputs": [
        {
          "indexed": false,
          "internalType": "string",
          "name": "batchId",
          "type": "string"
        },
        {
          "indexed": false,
          "internalType": "string",
          "name": "newStatus",
          "type": "string"
        },
        {
          "indexed": false,
          "internalType": "address",
          "name": "by",
          "type": "address"
        },
        {
          "indexed": false,
          "internalType": "string",
          "name": "location",
          "type": "string"
        }
      ],
      "name": "BatchStatusUpdated",
      "type": "event"
    },
    {
      "inputs": [
        {
          "internalType": "string",
          "name": "_batchId",
          "type": "string"
        },
        {
          "internalType": "uint256",
          "name": "_quantity",
          "type": "uint256"
        },
        {
          "internalType": "string",
          "name": "_userId",
          "type": "string"
        },
        {
          "internalType": "string",
          "name": "_internalBatchName",
          "type": "string"
        },
        {
          "internalType": "string",
          "name": "_initialLocation",
          "type": "string"
        }
      ],
      "name": "createBatch",
      "outputs": [],
      "stateMutability": "nonpayable",
      "type": "function"
    },
    {
      "inputs": [],
      "name": "distributor",
      "outputs": [
        {
          "internalType": "address",
          "name": "",
          "type": "address"
        }
      ],
      "stateMutability": "view",
      "type": "function"
    },
    {
      "inputs": [],
      "name": "getAllBatchIds",
      "outputs": [
        {
          "internalType": "string[]",
          "name": "",
          "type": "string[]"
        }
      ],
      "stateMutability": "view",
      "type": "function"
    },
    {
      "inputs": [
        {
          "internalType": "string",
          "name": "_batchId",
          "type": "string"
        }
      ],
      "name": "getBatch",
      "outputs": [
        {
          "internalType": "string",
          "name": "batchId",
          "type": "string"
        },
        {
          "internalType": "uint256",
          "name": "quantity",
          "type": "uint256"
        },
        {
          "internalType": "string",
          "name": "userId",
          "type": "string"
        },
        {
          "internalType": "string",
          "name": "internalBatchName",
          "type": "string"
        },
        {
          "internalType": "uint256",
          "name": "manufacturingDate",
          "type": "uint256"
        },
        {
          "internalType": "string",
          "name": "status",
          "type": "string"
        },
        {
          "internalType": "string",
          "name": "currentLocation",
          "type": "string"
        },
        {
          "internalType": "address",
          "name": "currentHolder",
          "type": "address"
        }
      ],
      "stateMutability": "view",
      "type": "function"
    },
    {
      "inputs": [],
      "name": "getBatchCount",
      "outputs": [
        {
          "internalType": "uint256",
          "name": "",
          "type": "uint256"
        }
      ],
      "stateMutability": "view",
      "type": "function"
    },
    {
      "inputs": [
        {
          "internalType": "string",
          "name": "_batchId",
          "type": "string"
        }
      ],
      "name": "getBatchHistory",
      "outputs": [
        {
          "internalType": "string[]",
          "name": "",
          "type": "string[]"
        }
      ],
      "stateMutability": "view",
      "type": "function"
    },
    {
      "inputs": [
        {
          "internalType": "string",
          "name": "_userId",
          "type": "string"
        }
      ],
      "name": "getBatchesByUser",
      "outputs": [
        {
          "internalType": "string[]",
          "name": "",
          "type": "string[]"
        }
      ],
      "stateMutability": "view",
      "type": "function"
    },
    {
      "inputs": [],
      "name": "manufacturer",
      "outputs": [
        {
          "internalType": "address",
          "name": "",
          "type": "address"
        }
      ],
      "stateMutability": "view",
      "type": "function"
    },
    {
      "inputs": [],
      "name": "retailer",
      "outputs": [
        {
          "internalType": "address",
          "name": "",
          "type": "address"
        }
      ],
      "stateMutability": "view",
      "type": "function"
    },
    {
      "inputs": [
        {
          "internalType": "address",
          "name": "_newDistributor",
          "type": "address"
        }
      ],
      "name": "setDistributor",
      "outputs": [],
      "stateMutability": "nonpayable",
      "type": "function"
    },
    {
      "inputs": [
        {
          "internalType": "address",
          "name": "_newRetailer",
          "type": "address"
        }
      ],
      "name": "setRetailer",
      "outputs": [],
      "stateMutability": "nonpayable",
      "type": "function"
    },
    {
      "inputs": [
        {
          "internalType": "string",
          "name": "_batchId",
          "type": "string"
        },
        {
          "internalType": "enum SupplyChain.Status",
          "name": "_newStatus",
          "type": "uint8"
        },
        {
          "internalType": "string",
          "name": "_newLocation",
          "type": "string"
        }
      ],
      "name": "updateBatchStatus",
      "outputs": [],
      "stateMutability": "nonpayable",
      "type": "function"
    }
  ],
  "bytecode": "0x608060405234801561001057600080fd5b506040516130b83803806130b88339818101604052810190610032919061015e565b336000806101000a81548173ffffffffffffffffffffffffffffffffffffffff021916908373ffffffffffffffffffffffffffffffffffffffff16021790555081600160006101000a81548173ffffffffffffffffffffffffffffffffffffffff021916908373ffffffffffffffffffffffffffffffffffffffff16021790555080600260006101000a81548173ffffffffffffffffffffffffffffffffffffffff021916908373ffffffffffffffffffffffffffffffffffffffff160217905550505061019e565b600080fd5b600073ffffffffffffffffffffffffffffffffffffffff82169050919050565b600061012b82610100565b9050919050565b61013b81610120565b811461014657600080fd5b50565b60008151905061015881610132565b92915050565b60008060408385031215610175576101746100fb565b5b600061018385828601610149565b925050602061019485828601610149565b9150509250929050565b612f0b806101ad6000396000f3fe608060405234801561001057600080fd5b50600436106100b45760003560e01c8063a252d8a711610071578063a252d8a714610165578063a8fabfa514610195578063addbdd8c146101b3578063bce06947146101e3578063bfe1092814610201578063f9ca42741461021f576100b4565b80632c8f5c5b146100b95780634a1f6125146100d55780634c1249fc146100f1578063631721c51461010f578063747542821461012b57806375619ab514610149575b600080fd5b6100d360048036038101906100ce9190611cfd565b610256565b005b6100ef60048036038101906100ea9190611de6565b610b9e565b005b6100f9610ce1565b6040516101069190611e22565b60405180910390f35b61012960048036038101906101249190611e73565b610d07565b005b6101336110c2565b6040516101409190611e22565b60405180910390f35b610163600480360381019061015e9190611de6565b6110e6565b005b61017f600480360381019061017a9190611f5e565b611229565b60405161018c91906120e8565b60405180910390f35b61019d611389565b6040516101aa9190612119565b60405180910390f35b6101cd60048036038101906101c89190611f5e565b611396565b6040516101da91906120e8565b60405180910390f35b6101eb61148d565b6040516101f891906120e8565b60405180910390f35b610209611566565b6040516102169190611e22565b60405180910390f35b61023960048036038101906102349190611f5e565b61158c565b60405161024d98979695949392919061217e565b60405180910390f35b826000600382604051610269919061225b565b908152602001604051809103902060040154036102bb576040517f08c379a00000000000000000000000000000000000000000000000000000000081526004016102b2906122be565b60405180910390fd5b60006003856040516102cd919061225b565b9081526020016040518091039020905060008160050160009054906101000a900460ff169050606060016005811115610309576103086122de565b5b86600581111561031c5761031b6122de565b5b036104535760006005811115610335576103346122de565b5b826005811115610348576103476122de565b5b14610388576040517f08c379a000000000000000000000000000000000000000000000000000000000815260040161037f90612359565b60405180910390fd5b60008054906101000a900473ffffffffffffffffffffffffffffffffffffffff1673ffffffffffffffffffffffffffffffffffffffff163373ffffffffffffffffffffffffffffffffffffffff1614610416576040517f08c379a000000000000000000000000000000000000000000000000000000000815260040161040d906123eb565b60405180910390fd5b6040518060400160405280601681526020017f5368697070656420746f204469737472696275746f72000000000000000000008152509050610adb565b60026005811115610467576104666122de565b5b86600581111561047a576104796122de565b5b036106185760016005811115610493576104926122de565b5b8260058111156104a6576104a56122de565b5b146104e6576040517f08c379a00000000000000000000000000000000000000000000000000000000081526004016104dd9061247d565b60405180910390fd5b600160009054906101000a900473ffffffffffffffffffffffffffffffffffffffff1673ffffffffffffffffffffffffffffffffffffffff163373ffffffffffffffffffffffffffffffffffffffff1614610576576040517f08c379a000000000000000000000000000000000000000000000000000000000815260040161056d9061250f565b60405180910390fd5b600160009054906101000a900473ffffffffffffffffffffffffffffffffffffffff168360070160006101000a81548173ffffffffffffffffffffffffffffffffffffffff021916908373ffffffffffffffffffffffffffffffffffffffff1602179055506040518060400160405280601781526020017f5265636569766564206279204469737472696275746f720000000000000000008152509050610ada565b6003600581111561062c5761062b6122de565b5b86600581111561063f5761063e6122de565b5b036107785760026005811115610658576106576122de565b5b82600581111561066b5761066a6122de565b5b146106ab576040517f08c379a00000000000000000000000000000000000000000000000000000000081526004016106a29061257b565b60405180910390fd5b600160009054906101000a900473ffffffffffffffffffffffffffffffffffffffff1673ffffffffffffffffffffffffffffffffffffffff163373ffffffffffffffffffffffffffffffffffffffff161461073b576040517f08c379a00000000000000000000000000000000000000000000000000000000081526004016107329061260d565b60405180910390fd5b6040518060400160405280601381526020017f5368697070656420746f2052657461696c6572000000000000000000000000008152509050610ad9565b6004600581111561078c5761078b6122de565b5b86600581111561079f5761079e6122de565b5b0361093d57600360058111156107b8576107b76122de565b5b8260058111156107cb576107ca6122de565b5b1461080b576040517f08c379a00000000000000000000000000000000000000000000000000000000081526004016108029061269f565b60405180910390fd5b600260009054906101000a900473ffffffffffffffffffffffffffffffffffffffff1673ffffffffffffffffffffffffffffffffffffffff163373ffffffffffffffffffffffffffffffffffffffff161461089b576040517f08c379a00000000000000000000000000000000000000000000000000000000081526004016108929061270b565b60405180910390fd5b600260009054906101000a900473ffffffffffffffffffffffffffffffffffffffff168360070160006101000a81548173ffffffffffffffffffffffffffffffffffffffff021916908373ffffffffffffffffffffffffffffffffffffffff1602179055506040518060400160405280601481526020017f52656365697665642062792052657461696c65720000000000000000000000008152509050610ad8565b6005808111156109505761094f6122de565b5b866005811115610963576109626122de565b5b03610a9c576004600581111561097c5761097b6122de565b5b82600581111561098f5761098e6122de565b5b146109cf576040517f08c379a00000000000000000000000000000000000000000000000000000000081526004016109c690612777565b60405180910390fd5b600260009054906101000a900473ffffffffffffffffffffffffffffffffffffffff1673ffffffffffffffffffffffffffffffffffffffff163373ffffffffffffffffffffffffffffffffffffffff1614610a5f576040517f08c379a0000000000000000000000000000000000000000000000000000000008152600401610a56906127e3565b60405180910390fd5b6040518060400160405280601481526020017f4261746368206d61726b656420617320536f6c640000000000000000000000008152509050610ad7565b6040517f08c379a0000000000000000000000000000000000000000000000000000000008152600401610ace9061284f565b60405180910390fd5b5b5b5b5b858360050160006101000a81548160ff02191690836005811115610b0257610b016122de565b5b021790555084836006019081610b189190612a7b565b508260080181908060018154018082558091505060019003906000526020600020016000909190919091509081610b4f9190612a7b565b507f66c7489fa30d5d8ee5d6c67d2f5e54a35142352ec775ccef8ea9dae2f97417c287610b7b886118c7565b3388604051610b8d9493929190612b4d565b60405180910390a150505050505050565b60008054906101000a900473ffffffffffffffffffffffffffffffffffffffff168073ffffffffffffffffffffffffffffffffffffffff163373ffffffffffffffffffffffffffffffffffffffff1614610c2d576040517f08c379a0000000000000000000000000000000000000000000000000000000008152600401610c2490612c19565b60405180910390fd5b600073ffffffffffffffffffffffffffffffffffffffff168273ffffffffffffffffffffffffffffffffffffffff1603610c9c576040517f08c379a0000000000000000000000000000000000000000000000000000000008152600401610c9390612c85565b60405180910390fd5b81600260006101000a81548173ffffffffffffffffffffffffffffffffffffffff021916908373ffffffffffffffffffffffffffffffffffffffff1602179055505050565b600260009054906101000a900473ffffffffffffffffffffffffffffffffffffffff1681565b60008054906101000a900473ffffffffffffffffffffffffffffffffffffffff168073ffffffffffffffffffffffffffffffffffffffff163373ffffffffffffffffffffffffffffffffffffffff1614610d96576040517f08c379a0000000000000000000000000000000000000000000000000000000008152600401610d8d90612c19565b60405180910390fd5b6000865111610dda576040517f08c379a0000000000000000000000000000000000000000000000000000000008152600401610dd190612cf1565b60405180910390fd5b6000600387604051610dec919061225b565b90815260200160405180910390206004015414610e3e576040517f08c379a0000000000000000000000000000000000000000000000000000000008152600401610e3590612d5d565b60405180910390fd5b60008511610e81576040517f08c379a0000000000000000000000000000000000000000000000000000000008152600401610e7890612def565b60405180910390fd5b6000600387604051610e93919061225b565b9081526020016040518091039020905086816000019081610eb49190612a7b565b5085816001018190555084816002019081610ecf9190612a7b565b5083816003019081610ee19190612a7b565b5042816004018190555060008160050160006101000a81548160ff02191690836005811115610f1357610f126122de565b5b021790555082816006019081610f299190612a7b565b5060008054906101000a900473ffffffffffffffffffffffffffffffffffffffff168160070160006101000a81548173ffffffffffffffffffffffffffffffffffffffff021916908373ffffffffffffffffffffffffffffffffffffffff1602179055508060080180600181540180825580915050600190039060005260206000200160006040518060400160405280601d81526020017f42617463682043726561746564206279204d616e75666163747572657200000081525090919091509081610ff59190612a7b565b5060048790806001815401808255809150506001900390600052602060002001600090919091909150908161102a9190612a7b565b5060058560405161103b919061225b565b90815260200160405180910390208790806001815401808255809150506001900390600052602060002001600090919091909150908161107b9190612a7b565b507f2c47f1b03bde212b9d7c189333c3cd040ba5c110d6700b6d20f7347d73fde50a878588886040516110b19493929190612e0f565b60405180910390a150505050505050565b60008054906101000a900473ffffffffffffffffffffffffffffffffffffffff1681565b60008054906101000a900473ffffffffffffffffffffffffffffffffffffffff168073ffffffffffffffffffffffffffffffffffffffff163373ffffffffffffffffffffffffffffffffffffffff1614611175576040517f08c379a000000000000000000000000000000000000000000000000000000000815260040161116c90612c19565b60405180910390fd5b600073ffffffffffffffffffffffffffffffffffffffff168273ffffffffffffffffffffffffffffffffffffffff16036111e4576040517f08c379a00000000000000000000000000000000000000000000000000000000081526004016111db90612c85565b60405180910390fd5b81600160006101000a81548173ffffffffffffffffffffffffffffffffffffffff021916908373ffffffffffffffffffffffffffffffffffffffff1602179055505050565b606081600060038260405161123e919061225b565b90815260200160405180910390206004015403611290576040517f08c379a0000000000000000000000000000000000000000000000000000000008152600401611287906122be565b60405180910390fd5b6003836040516112a0919061225b565b9081526020016040518091039020600801805480602002602001604051908101604052809291908181526020016000905b8282101561137d5783829060005260206000200180546112f09061289e565b80601f016020809104026020016040519081016040528092919081815260200182805461131c9061289e565b80156113695780601f1061133e57610100808354040283529160200191611369565b820191906000526020600020905b81548152906001019060200180831161134c57829003601f168201915b5050505050815260200190600101906112d1565b50505050915050919050565b6000600480549050905090565b60606005826040516113a8919061225b565b9081526020016040518091039020805480602002602001604051908101604052809291908181526020016000905b828210156114825783829060005260206000200180546113f59061289e565b80601f01602080910402602001604051908101604052809291908181526020018280546114219061289e565b801561146e5780601f106114435761010080835404028352916020019161146e565b820191906000526020600020905b81548152906001019060200180831161145157829003601f168201915b5050505050815260200190600101906113d6565b505050509050919050565b60606004805480602002602001604051908101604052809291908181526020016000905b8282101561155d5783829060005260206000200180546114d09061289e565b80601f01602080910402602001604051908101604052809291908181526020018280546114fc9061289e565b80156115495780601f1061151e57610100808354040283529160200191611549565b820191906000526020600020905b81548152906001019060200180831161152c57829003601f168201915b5050505050815260200190600101906114b1565b50505050905090565b600160009054906101000a900473ffffffffffffffffffffffffffffffffffffffff1681565b60606000606080600060608060008860006003826040516115ad919061225b565b908152602001604051809103902060040154036115ff576040517f08c379a00000000000000000000000000000000000000000000000000000000081526004016115f6906122be565b60405180910390fd5b600060038b604051611611919061225b565b90815260200160405180910390209050806000018160010154826002018360030184600401546116518660050160009054906101000a900460ff166118c7565b866006018760070160009054906101000a900473ffffffffffffffffffffffffffffffffffffffff168780546116869061289e565b80601f01602080910402602001604051908101604052809291908181526020018280546116b29061289e565b80156116ff5780601f106116d4576101008083540402835291602001916116ff565b820191906000526020600020905b8154815290600101906020018083116116e257829003601f168201915b505050505097508580546117129061289e565b80601f016020809104026020016040519081016040528092919081815260200182805461173e9061289e565b801561178b5780601f106117605761010080835404028352916020019161178b565b820191906000526020600020905b81548152906001019060200180831161176e57829003601f168201915b5050505050955084805461179e9061289e565b80601f01602080910402602001604051908101604052809291908181526020018280546117ca9061289e565b80156118175780601f106117ec57610100808354040283529160200191611817565b820191906000526020600020905b8154815290600101906020018083116117fa57829003601f168201915b5050505050945081805461182a9061289e565b80601f01602080910402602001604051908101604052809291908181526020018280546118569061289e565b80156118a35780601f10611878576101008083540402835291602001916118a3565b820191906000526020600020905b81548152906001019060200180831161188657829003601f168201915b50505050509150995099509950995099509950995099505050919395975091939597565b6060600060058111156118dd576118dc6122de565b5b8260058111156118f0576118ef6122de565b5b03611932576040518060400160405280600781526020017f43726561746564000000000000000000000000000000000000000000000000008152509050611b79565b60016005811115611946576119456122de565b5b826005811115611959576119586122de565b5b0361199b576040518060400160405280601681526020017f496e5472616e736974546f4469737472696275746f72000000000000000000008152509050611b79565b600260058111156119af576119ae6122de565b5b8260058111156119c2576119c16122de565b5b03611a04576040518060400160405280600d81526020017f41744469737472696275746f72000000000000000000000000000000000000008152509050611b79565b60036005811115611a1857611a176122de565b5b826005811115611a2b57611a2a6122de565b5b03611a6d576040518060400160405280601381526020017f496e5472616e736974546f52657461696c6572000000000000000000000000008152509050611b79565b60046005811115611a8157611a806122de565b5b826005811115611a9457611a936122de565b5b03611ad6576040518060400160405280600a81526020017f417452657461696c6572000000000000000000000000000000000000000000008152509050611b79565b600580811115611ae957611ae86122de565b5b826005811115611afc57611afb6122de565b5b03611b3e576040518060400160405280600481526020017f536f6c64000000000000000000000000000000000000000000000000000000008152509050611b79565b6040517f08c379a0000000000000000000000000000000000000000000000000000000008152600401611b7090612eb5565b60405180910390fd5b919050565b6000604051905090565b600080fd5b600080fd5b600080fd5b600080fd5b6000601f19601f8301169050919050565b7f4e487b7100000000000000000000000000000000000000000000000000000000600052604160045260246000fd5b611be582611b9c565b810181811067ffffffffffffffff82111715611c0457611c03611bad565b5b80604052505050565b6000611c17611b7e565b9050611c238282611bdc565b919050565b600067ffffffffffffffff821115611c4357611c42611bad565b5b611c4c82611b9c565b9050602081019050919050565b82818337600083830152505050565b6000611c7b611c7684611c28565b611c0d565b905082815260208101848484011115611c9757611c96611b97565b5b611ca2848285611c59565b509392505050565b600082601f830112611cbf57611cbe611b92565b5b8135611ccf848260208601611c68565b91505092915050565b60068110611ce557600080fd5b50565b600081359050611cf781611cd8565b92915050565b600080600060608486031215611d1657611d15611b88565b5b600084013567ffffffffffffffff811115611d3457611d33611b8d565b5b611d4086828701611caa565b9350506020611d5186828701611ce8565b925050604084013567ffffffffffffffff811115611d7257611d71611b8d565b5b611d7e86828701611caa565b9150509250925092565b600073ffffffffffffffffffffffffffffffffffffffff82169050919050565b6000611db382611d88565b9050919050565b611dc381611da8565b8114611dce57600080fd5b50565b600081359050611de081611dba565b92915050565b600060208284031215611dfc57611dfb611b88565b5b6000611e0a84828501611dd1565b91505092915050565b611e1c81611da8565b82525050565b6000602082019050611e376000830184611e13565b92915050565b6000819050919050565b611e5081611e3d565b8114611e5b57600080fd5b50565b600081359050611e6d81611e47565b92915050565b600080600080600060a08688031215611e8f57611e8e611b88565b5b600086013567ffffffffffffffff811115611ead57611eac611b8d565b5b611eb988828901611caa565b9550506020611eca88828901611e5e565b945050604086013567ffffffffffffffff811115611eeb57611eea611b8d565b5b611ef788828901611caa565b935050606086013567ffffffffffffffff811115611f1857611f17611b8d565b5b611f2488828901611caa565b925050608086013567ffffffffffffffff811115611f4557611f44611b8d565b5b611f5188828901611caa565b9150509295509295909350565b600060208284031215611f7457611f73611b88565b5b600082013567ffffffffffffffff811115611f9257611f91611b8d565b5b611f9e84828501611caa565b91505092915050565b600081519050919050565b600082825260208201905092915050565b6000819050602082019050919050565b600081519050919050565b600082825260208201905092915050565b60005b8381101561200d578082015181840152602081019050611ff2565b60008484015250505050565b600061202482611fd3565b61202e8185611fde565b935061203e818560208601611fef565b61204781611b9c565b840191505092915050565b600061205e8383612019565b905092915050565b6000602082019050919050565b600061207e82611fa7565b6120888185611fb2565b93508360208202850161209a85611fc3565b8060005b858110156120d657848403895281516120b78582612052565b94506120c283612066565b925060208a0199505060018101905061209e565b50829750879550505050505092915050565b600060208201905081810360008301526121028184612073565b905092915050565b61211381611e3d565b82525050565b600060208201905061212e600083018461210a565b92915050565b600082825260208201905092915050565b600061215082611fd3565b61215a8185612134565b935061216a818560208601611fef565b61217381611b9c565b840191505092915050565b6000610100820190508181036000830152612199818b612145565b90506121a8602083018a61210a565b81810360408301526121ba8189612145565b905081810360608301526121ce8188612145565b90506121dd608083018761210a565b81810360a08301526121ef8186612145565b905081810360c08301526122038185612145565b905061221260e0830184611e13565b9998505050505050505050565b600081905092915050565b600061223582611fd3565b61223f818561221f565b935061224f818560208601611fef565b80840191505092915050565b6000612267828461222a565b915081905092915050565b7f426174636820646f6573206e6f74206578697374000000000000000000000000600082015250565b60006122a8601483612134565b91506122b382612272565b602082019050919050565b600060208201905081810360008301526122d78161229b565b9050919050565b7f4e487b7100000000000000000000000000000000000000000000000000000000600052602160045260246000fd5b7f4261746368206d75737420626520696e20437265617465642073746174650000600082015250565b6000612343601e83612134565b915061234e8261230d565b602082019050919050565b6000602082019050818103600083015261237281612336565b9050919050565b7f4f6e6c79206d616e7566616374757265722063616e207368697020746f20646960008201527f737472696275746f720000000000000000000000000000000000000000000000602082015250565b60006123d5602983612134565b91506123e082612379565b604082019050919050565b60006020820190508181036000830152612404816123c8565b9050919050565b7f4261746368206d75737420626520696e207472616e73697420746f206469737460008201527f72696275746f7200000000000000000000000000000000000000000000000000602082015250565b6000612467602783612134565b91506124728261240b565b604082019050919050565b600060208201905081810360008301526124968161245a565b9050919050565b7f4f6e6c79206469737472696275746f722063616e20726563656976652062617460008201527f6368000000000000000000000000000000000000000000000000000000000000602082015250565b60006124f9602283612134565b91506125048261249d565b604082019050919050565b60006020820190508181036000830152612528816124ec565b9050919050565b7f4261746368206d757374206265206174206469737472696275746f7200000000600082015250565b6000612565601c83612134565b91506125708261252f565b602082019050919050565b6000602082019050818103600083015261259481612558565b9050919050565b7f4f6e6c79206469737472696275746f722063616e207368697020746f2072657460008201527f61696c6572000000000000000000000000000000000000000000000000000000602082015250565b60006125f7602583612134565b91506126028261259b565b604082019050919050565b60006020820190508181036000830152612626816125ea565b9050919050565b7f4261746368206d75737420626520696e207472616e73697420746f207265746160008201527f696c657200000000000000000000000000000000000000000000000000000000602082015250565b6000612689602483612134565b91506126948261262d565b604082019050919050565b600060208201905081810360008301526126b88161267c565b9050919050565b7f4f6e6c792072657461696c65722063616e207265636569766520626174636800600082015250565b60006126f5601f83612134565b9150612700826126bf565b602082019050919050565b60006020820190508181036000830152612724816126e8565b9050919050565b7f4261746368206d7573742062652061742072657461696c657200000000000000600082015250565b6000612761601983612134565b915061276c8261272b565b602082019050919050565b6000602082019050818103600083015261279081612754565b9050919050565b7f4f6e6c792072657461696c65722063616e2073656c6c20626174636800000000600082015250565b60006127cd601c83612134565b91506127d882612797565b602082019050919050565b600060208201905081810360008301526127fc816127c0565b9050919050565b7f496e76616c696420737461747573207472616e736974696f6e00000000000000600082015250565b6000612839601983612134565b915061284482612803565b602082019050919050565b600060208201905081810360008301526128688161282c565b9050919050565b7f4e487b7100000000000000000000000000000000000000000000000000000000600052602260045260246000fd5b600060028204905060018216806128b657607f821691505b6020821081036128c9576128c861286f565b5b50919050565b60008190508160005260206000209050919050565b60006020601f8301049050919050565b600082821b905092915050565b6000600883026129317fffffffffffffffffffffffffffffffffffffffffffffffffffffffffffffffff826128f4565b61293b86836128f4565b95508019841693508086168417925050509392505050565b6000819050919050565b600061297861297361296e84611e3d565b612953565b611e3d565b9050919050565b6000819050919050565b6129928361295d565b6129a661299e8261297f565b848454612901565b825550505050565b600090565b6129bb6129ae565b6129c6818484612989565b505050565b5b818110156129ea576129df6000826129b3565b6001810190506129cc565b5050565b601f821115612a2f57612a00816128cf565b612a09846128e4565b81016020851015612a18578190505b612a2c612a24856128e4565b8301826129cb565b50505b505050565b600082821c905092915050565b6000612a5260001984600802612a34565b1980831691505092915050565b6000612a6b8383612a41565b9150826002028217905092915050565b612a8482611fd3565b67ffffffffffffffff811115612a9d57612a9c611bad565b5b612aa7825461289e565b612ab28282856129ee565b600060209050601f831160018114612ae55760008415612ad3578287015190505b612add8582612a5f565b865550612b45565b601f198416612af3866128cf565b60005b82811015612b1b57848901518255600182019150602085019450602081019050612af6565b86831015612b385784890151612b34601f891682612a41565b8355505b6001600288020188555050505b505050505050565b60006080820190508181036000830152612b678187612145565b90508181036020830152612b7b8186612145565b9050612b8a6040830185611e13565b8181036060830152612b9c8184612145565b905095945050505050565b7f43616c6c657220646f6573206e6f74206861766520746865207265717569726560008201527f6420726f6c650000000000000000000000000000000000000000000000000000602082015250565b6000612c03602683612134565b9150612c0e82612ba7565b604082019050919050565b60006020820190508181036000830152612c3281612bf6565b9050919050565b7f496e76616c696420616464726573730000000000000000000000000000000000600082015250565b6000612c6f600f83612134565b9150612c7a82612c39565b602082019050919050565b60006020820190508181036000830152612c9e81612c62565b9050919050565b7f42617463682049442063616e6e6f7420626520656d7074790000000000000000600082015250565b6000612cdb601883612134565b9150612ce682612ca5565b602082019050919050565b60006020820190508181036000830152612d0a81612cce565b9050919050565b7f426174636820494420616c726561647920657869737473000000000000000000600082015250565b6000612d47601783612134565b9150612d5282612d11565b602082019050919050565b60006020820190508181036000830152612d7681612d3a565b9050919050565b7f5175616e74697479206d7573742062652067726561746572207468616e207a6560008201527f726f000000000000000000000000000000000000000000000000000000000000602082015250565b6000612dd9602283612134565b9150612de482612d7d565b604082019050919050565b60006020820190508181036000830152612e0881612dcc565b9050919050565b60006080820190508181036000830152612e298187612145565b90508181036020830152612e3d8186612145565b9050612e4c604083018561210a565b8181036060830152612e5e8184612145565b905095945050505050565b7f496e76616c696420737461747573000000000000000000000000000000000000600082015250565b6000612e9f600e83612134565b9150612eaa82612e69565b602082019050919050565b60006020820190508181036000830152612ece81612e92565b905091905056fea264697066735822122025d426226bf781a3947c3ee03f157acf069157a56e11cb1cfcf40276ab7388d964736f6c634300081c0033",
  "linkReferences": {},
  "deployedLinkReferences": {}
}